{
  "contractName": "DCNETToken",
  "abi": [
    {
      "inputs": [],
      "stateMutability": "nonpayable",
      "type": "constructor"
    },
    {
      "anonymous": false,
      "inputs": [
        {
          "indexed": true,
          "internalType": "address",
          "name": "owner",
          "type": "address"
        },
        {
          "indexed": true,
          "internalType": "address",
          "name": "spender",
          "type": "address"
        },
        {
          "indexed": false,
          "internalType": "uint256",
          "name": "value",
          "type": "uint256"
        }
      ],
      "name": "Approval",
      "type": "event"
    },
    {
      "anonymous": false,
      "inputs": [
        {
          "indexed": true,
          "internalType": "address",
          "name": "recipient",
          "type": "address"
        },
        {
          "indexed": false,
          "internalType": "uint256",
          "name": "amount",
          "type": "uint256"
        },
        {
          "indexed": false,
          "internalType": "string",
          "name": "reason",
          "type": "string"
        }
      ],
      "name": "DataRewardDistributed",
      "type": "event"
    },
    {
      "anonymous": false,
      "inputs": [
        {
          "indexed": true,
          "internalType": "address",
          "name": "previousOwner",
          "type": "address"
        },
        {
          "indexed": true,
          "internalType": "address",
          "name": "newOwner",
          "type": "address"
        }
      ],
      "name": "OwnershipTransferred",
      "type": "event"
    },
    {
      "anonymous": false,
      "inputs": [
        {
          "indexed": false,
          "internalType": "address",
          "name": "account",
          "type": "address"
        }
      ],
      "name": "Paused",
      "type": "event"
    },
    {
      "anonymous": false,
      "inputs": [
        {
          "indexed": true,
          "internalType": "address",
          "name": "staker",
          "type": "address"
        },
        {
          "indexed": false,
          "internalType": "uint256",
          "name": "amount",
          "type": "uint256"
        }
      ],
      "name": "StakingRewardClaimed",
      "type": "event"
    },
    {
      "anonymous": false,
      "inputs": [
        {
          "indexed": true,
          "internalType": "address",
          "name": "staker",
          "type": "address"
        },
        {
          "indexed": false,
          "internalType": "uint256",
          "name": "amount",
          "type": "uint256"
        },
        {
          "indexed": false,
          "internalType": "uint256",
          "name": "lockPeriod",
          "type": "uint256"
        }
      ],
      "name": "TokensStaked",
      "type": "event"
    },
    {
      "anonymous": false,
      "inputs": [
        {
          "indexed": true,
          "internalType": "address",
          "name": "staker",
          "type": "address"
        },
        {
          "indexed": false,
          "internalType": "uint256",
          "name": "amount",
          "type": "uint256"
        },
        {
          "indexed": false,
          "internalType": "uint256",
          "name": "rewards",
          "type": "uint256"
        }
      ],
      "name": "TokensUnstaked",
      "type": "event"
    },
    {
      "anonymous": false,
      "inputs": [
        {
          "indexed": true,
          "internalType": "address",
          "name": "from",
          "type": "address"
        },
        {
          "indexed": true,
          "internalType": "address",
          "name": "to",
          "type": "address"
        },
        {
          "indexed": false,
          "internalType": "uint256",
          "name": "value",
          "type": "uint256"
        }
      ],
      "name": "Transfer",
      "type": "event"
    },
    {
      "anonymous": false,
      "inputs": [
        {
          "indexed": false,
          "internalType": "address",
          "name": "account",
          "type": "address"
        }
      ],
      "name": "Unpaused",
      "type": "event"
    },
    {
      "inputs": [],
      "name": "DATA_REWARDS_POOL",
      "outputs": [
        {
          "internalType": "uint256",
          "name": "",
          "type": "uint256"
        }
      ],
      "stateMutability": "view",
      "type": "function",
      "constant": true
    },
    {
      "inputs": [],
      "name": "ECOSYSTEM_POOL",
      "outputs": [
        {
          "internalType": "uint256",
          "name": "",
          "type": "uint256"
        }
      ],
      "stateMutability": "view",
      "type": "function",
      "constant": true
    },
    {
      "inputs": [],
      "name": "GOVERNANCE_POOL",
      "outputs": [
        {
          "internalType": "uint256",
          "name": "",
          "type": "uint256"
        }
      ],
      "stateMutability": "view",
      "type": "function",
      "constant": true
    },
    {
      "inputs": [],
      "name": "RESEARCH_FUNDING_POOL",
      "outputs": [
        {
          "internalType": "uint256",
          "name": "",
          "type": "uint256"
        }
      ],
      "stateMutability": "view",
      "type": "function",
      "constant": true
    },
    {
      "inputs": [],
      "name": "TEAM_POOL",
      "outputs": [
        {
          "internalType": "uint256",
          "name": "",
          "type": "uint256"
        }
      ],
      "stateMutability": "view",
      "type": "function",
      "constant": true
    },
    {
      "inputs": [
        {
          "internalType": "address",
          "name": "owner",
          "type": "address"
        },
        {
          "internalType": "address",
          "name": "spender",
          "type": "address"
        }
      ],
      "name": "allowance",
      "outputs": [
        {
          "internalType": "uint256",
          "name": "",
          "type": "uint256"
        }
      ],
      "stateMutability": "view",
      "type": "function",
      "constant": true
    },
    {
      "inputs": [
        {
          "internalType": "address",
          "name": "spender",
          "type": "address"
        },
        {
          "internalType": "uint256",
          "name": "amount",
          "type": "uint256"
        }
      ],
      "name": "approve",
      "outputs": [
        {
          "internalType": "bool",
          "name": "",
          "type": "bool"
        }
      ],
      "stateMutability": "nonpayable",
      "type": "function"
    },
    {
      "inputs": [
        {
          "internalType": "address",
          "name": "account",
          "type": "address"
        }
      ],
      "name": "balanceOf",
      "outputs": [
        {
          "internalType": "uint256",
          "name": "",
          "type": "uint256"
        }
      ],
      "stateMutability": "view",
      "type": "function",
      "constant": true
    },
    {
      "inputs": [],
      "name": "baseStakingRate",
      "outputs": [
        {
          "internalType": "uint256",
          "name": "",
          "type": "uint256"
        }
      ],
      "stateMutability": "view",
      "type": "function",
      "constant": true
    },
    {
      "inputs": [
        {
          "internalType": "uint256",
          "name": "amount",
          "type": "uint256"
        }
      ],
      "name": "burn",
      "outputs": [],
      "stateMutability": "nonpayable",
      "type": "function"
    },
    {
      "inputs": [
        {
          "internalType": "address",
          "name": "account",
          "type": "address"
        },
        {
          "internalType": "uint256",
          "name": "amount",
          "type": "uint256"
        }
      ],
      "name": "burnFrom",
      "outputs": [],
      "stateMutability": "nonpayable",
      "type": "function"
    },
    {
      "inputs": [],
      "name": "dataRewardsDistributed",
      "outputs": [
        {
          "internalType": "uint256",
          "name": "",
          "type": "uint256"
        }
      ],
      "stateMutability": "view",
      "type": "function",
      "constant": true
    },
    {
      "inputs": [
        {
          "internalType": "address",
          "name": "",
          "type": "address"
        }
      ],
      "name": "dataRewardsEarned",
      "outputs": [
        {
          "internalType": "uint256",
          "name": "",
          "type": "uint256"
        }
      ],
      "stateMutability": "view",
      "type": "function",
      "constant": true
    },
    {
      "inputs": [],
      "name": "decimals",
      "outputs": [
        {
          "internalType": "uint8",
          "name": "",
          "type": "uint8"
        }
      ],
      "stateMutability": "view",
      "type": "function",
      "constant": true
    },
    {
      "inputs": [
        {
          "internalType": "address",
          "name": "spender",
          "type": "address"
        },
        {
          "internalType": "uint256",
          "name": "subtractedValue",
          "type": "uint256"
        }
      ],
      "name": "decreaseAllowance",
      "outputs": [
        {
          "internalType": "bool",
          "name": "",
          "type": "bool"
        }
      ],
      "stateMutability": "nonpayable",
      "type": "function"
    },
    {
      "inputs": [],
      "name": "governanceDistributed",
      "outputs": [
        {
          "internalType": "uint256",
          "name": "",
          "type": "uint256"
        }
      ],
      "stateMutability": "view",
      "type": "function",
      "constant": true
    },
    {
      "inputs": [
        {
          "internalType": "address",
          "name": "spender",
          "type": "address"
        },
        {
          "internalType": "uint256",
          "name": "addedValue",
          "type": "uint256"
        }
      ],
      "name": "increaseAllowance",
      "outputs": [
        {
          "internalType": "bool",
          "name": "",
          "type": "bool"
        }
      ],
      "stateMutability": "nonpayable",
      "type": "function"
    },
    {
      "inputs": [],
      "name": "maxStakingBonus",
      "outputs": [
        {
          "internalType": "uint256",
          "name": "",
          "type": "uint256"
        }
      ],
      "stateMutability": "view",
      "type": "function",
      "constant": true
    },
    {
      "inputs": [],
      "name": "name",
      "outputs": [
        {
          "internalType": "string",
          "name": "",
          "type": "string"
        }
      ],
      "stateMutability": "view",
      "type": "function",
      "constant": true
    },
    {
      "inputs": [],
      "name": "owner",
      "outputs": [
        {
          "internalType": "address",
          "name": "",
          "type": "address"
        }
      ],
      "stateMutability": "view",
      "type": "function",
      "constant": true
    },
    {
      "inputs": [],
      "name": "paused",
      "outputs": [
        {
          "internalType": "bool",
          "name": "",
          "type": "bool"
        }
      ],
      "stateMutability": "view",
      "type": "function",
      "constant": true
    },
    {
      "inputs": [],
      "name": "renounceOwnership",
      "outputs": [],
      "stateMutability": "nonpayable",
      "type": "function"
    },
    {
      "inputs": [],
      "name": "researchFundingDistributed",
      "outputs": [
        {
          "internalType": "uint256",
          "name": "",
          "type": "uint256"
        }
      ],
      "stateMutability": "view",
      "type": "function",
      "constant": true
    },
    {
      "inputs": [
        {
          "internalType": "address",
          "name": "",
          "type": "address"
        }
      ],
      "name": "stakingInfo",
      "outputs": [
        {
          "internalType": "uint256",
          "name": "stakedAmount",
          "type": "uint256"
        },
        {
          "internalType": "uint256",
          "name": "stakeTimestamp",
          "type": "uint256"
        },
        {
          "internalType": "uint256",
          "name": "lockPeriod",
          "type": "uint256"
        },
        {
          "internalType": "uint256",
          "name": "rewardsEarned",
          "type": "uint256"
        },
        {
          "internalType": "bool",
          "name": "isActive",
          "type": "bool"
        }
      ],
      "stateMutability": "view",
      "type": "function",
      "constant": true
    },
    {
      "inputs": [
        {
          "internalType": "address",
          "name": "",
          "type": "address"
        }
      ],
      "name": "stakingRewards",
      "outputs": [
        {
          "internalType": "uint256",
          "name": "",
          "type": "uint256"
        }
      ],
      "stateMutability": "view",
      "type": "function",
      "constant": true
    },
    {
      "inputs": [],
      "name": "symbol",
      "outputs": [
        {
          "internalType": "string",
          "name": "",
          "type": "string"
        }
      ],
      "stateMutability": "view",
      "type": "function",
      "constant": true
    },
    {
      "inputs": [],
      "name": "totalStaked",
      "outputs": [
        {
          "internalType": "uint256",
          "name": "",
          "type": "uint256"
        }
      ],
      "stateMutability": "view",
      "type": "function",
      "constant": true
    },
    {
      "inputs": [],
      "name": "totalSupply",
      "outputs": [
        {
          "internalType": "uint256",
          "name": "",
          "type": "uint256"
        }
      ],
      "stateMutability": "view",
      "type": "function",
      "constant": true
    },
    {
      "inputs": [
        {
          "internalType": "address",
          "name": "to",
          "type": "address"
        },
        {
          "internalType": "uint256",
          "name": "amount",
          "type": "uint256"
        }
      ],
      "name": "transfer",
      "outputs": [
        {
          "internalType": "bool",
          "name": "",
          "type": "bool"
        }
      ],
      "stateMutability": "nonpayable",
      "type": "function"
    },
    {
      "inputs": [
        {
          "internalType": "address",
          "name": "from",
          "type": "address"
        },
        {
          "internalType": "address",
          "name": "to",
          "type": "address"
        },
        {
          "internalType": "uint256",
          "name": "amount",
          "type": "uint256"
        }
      ],
      "name": "transferFrom",
      "outputs": [
        {
          "internalType": "bool",
          "name": "",
          "type": "bool"
        }
      ],
      "stateMutability": "nonpayable",
      "type": "function"
    },
    {
      "inputs": [
        {
          "internalType": "address",
          "name": "newOwner",
          "type": "address"
        }
      ],
      "name": "transferOwnership",
      "outputs": [],
      "stateMutability": "nonpayable",
      "type": "function"
    },
    {
      "inputs": [
        {
          "internalType": "address",
          "name": "recipient",
          "type": "address"
        },
        {
          "internalType": "uint256",
          "name": "amount",
          "type": "uint256"
        },
        {
          "internalType": "string",
          "name": "reason",
          "type": "string"
        }
      ],
      "name": "distributeDataReward",
      "outputs": [],
      "stateMutability": "nonpayable",
      "type": "function"
    },
    {
      "inputs": [
        {
          "internalType": "uint256",
          "name": "amount",
          "type": "uint256"
        },
        {
          "internalType": "uint256",
          "name": "lockPeriodMonths",
          "type": "uint256"
        }
      ],
      "name": "stakeTokens",
      "outputs": [],
      "stateMutability": "nonpayable",
      "type": "function"
    },
    {
      "inputs": [],
      "name": "unstakeTokens",
      "outputs": [],
      "stateMutability": "nonpayable",
      "type": "function"
    },
    {
      "inputs": [],
      "name": "claimStakingRewards",
      "outputs": [],
      "stateMutability": "nonpayable",
      "type": "function"
    },
    {
      "inputs": [
        {
          "internalType": "address",
          "name": "staker",
          "type": "address"
        }
      ],
      "name": "calculateStakingRewards",
      "outputs": [
        {
          "internalType": "uint256",
          "name": "",
          "type": "uint256"
        }
      ],
      "stateMutability": "view",
      "type": "function",
      "constant": true
    },
    {
      "inputs": [
        {
          "internalType": "address",
          "name": "staker",
          "type": "address"
        }
      ],
      "name": "getStakingInfo",
      "outputs": [
        {
          "internalType": "uint256",
          "name": "stakedAmount",
          "type": "uint256"
        },
        {
          "internalType": "uint256",
          "name": "stakeTimestamp",
          "type": "uint256"
        },
        {
          "internalType": "uint256",
          "name": "lockPeriod",
          "type": "uint256"
        },
        {
          "internalType": "uint256",
          "name": "rewardsEarned",
          "type": "uint256"
        },
        {
          "internalType": "uint256",
          "name": "pendingRewards",
          "type": "uint256"
        },
        {
          "internalType": "bool",
          "name": "isActive",
          "type": "bool"
        }
      ],
      "stateMutability": "view",
      "type": "function",
      "constant": true
    },
    {
      "inputs": [
        {
          "internalType": "address[]",
          "name": "recipients",
          "type": "address[]"
        },
        {
          "internalType": "uint256[]",
          "name": "amounts",
          "type": "uint256[]"
        },
        {
          "internalType": "string",
          "name": "reason",
          "type": "string"
        }
      ],
      "name": "batchDistributeRewards",
      "outputs": [],
      "stateMutability": "nonpayable",
      "type": "function"
    },
    {
      "inputs": [],
      "name": "getDistributionStats",
      "outputs": [
        {
          "internalType": "uint256",
          "name": "_dataRewardsDistributed",
          "type": "uint256"
        },
        {
          "internalType": "uint256",
          "name": "_researchFundingDistributed",
          "type": "uint256"
        },
        {
          "internalType": "uint256",
          "name": "_governanceDistributed",
          "type": "uint256"
        },
        {
          "internalType": "uint256",
          "name": "_totalStaked",
          "type": "uint256"
        },
        {
          "internalType": "uint256",
          "name": "dataRewardsRemaining",
          "type": "uint256"
        },
        {
          "internalType": "uint256",
          "name": "researchFundingRemaining",
          "type": "uint256"
        }
      ],
      "stateMutability": "view",
      "type": "function",
      "constant": true
    },
    {
      "inputs": [],
      "name": "pause",
      "outputs": [],
      "stateMutability": "nonpayable",
      "type": "function"
    },
    {
      "inputs": [],
      "name": "unpause",
      "outputs": [],
      "stateMutability": "nonpayable",
      "type": "function"
    }
  ],
  "bytecode": "0x6080346200043a576040906001600160401b0390808301828111828210176200033c578352600e81526020906d2232a1b634a732ba102a37b5b2b760911b82820152835192848401848110828211176200033c578552600591828552641110d3915560da1b848601528051918083116200033c5760038054936001938486811c961680156200042f575b8887101462000419578190601f96878111620003c5575b5088908783116001146200035e5760009262000352575b505060001982841b1c191690841b1781555b86519182116200033c5760049687548481811c9116801562000331575b888210146200031c5790818685949311620002c6575b5087908684116001146200025b576000936200024f575b505082841b92600019911b1c19161785555b82546001600160a81b0319811633600881811b610100600160a81b03169290921790955587519491901c6001600160a01b03167f8be0079c531659141344cd1fd0a4f28419497f9722a3daafe3b4186f6b6457e0600080a3600655600c600e556064600f553315620002125750506002546b033b2e3c9fd0803ce800000092838201809211620001fd57506000917fddf252ad1be2c89b69c2b068fc378daa952ba7f163c4a11628f55a4df523b3ef9160025533835282815284832084815401905584519384523393a351611e2e9081620004408239f35b601190634e487b7160e01b6000525260246000fd5b6064928462461bcd60e51b845283015260248201527f45524332303a206d696e7420746f20746865207a65726f2061646472657373006044820152fd5b01519150388062000113565b9190859450601f198416928a600052896000209360005b8b828210620002af575050851162000294575b50505050811b01855562000125565b01519060f884600019921b161c191690553880808062000285565b838501518755899890960195938401930162000272565b90919250886000528760002086808601891c8201928a871062000312575b9187918796959493018a1c01915b82811062000302575050620000fc565b60008155869550879101620002f2565b92508192620002e4565b602289634e487b7160e01b6000525260246000fd5b90607f1690620000e6565b634e487b7160e01b600052604160045260246000fd5b015190503880620000b7565b90869350601f19831691856000528a6000209260005b8c828210620003ae575050841162000395575b505050811b018155620000c9565b015160001983861b60f8161c1916905538808062000387565b8385015186558a9790950194938401930162000374565b9091508360005288600020878085018a1c8201928b86106200040f575b91889186959493018b1c01915b828110620003ff575050620000a0565b60008155859450889101620003ef565b92508192620003e2565b634e487b7160e01b600052602260045260246000fd5b95607f169562000089565b600080fdfe608060408181526004918236101561001657600080fd5b600092833560e01c91826306fdde031461122757508163095ea7b3146111fd57816309dfed23146111d757816318160ddd146111b857816323b872dd1461117b57816324b97c46146110e2578163274202f0146110bc5781632c9a3b9014610fc4578163313ce56714610fa85781633950935114610f585781633b7b618814610dc55781633f4ba83a14610d2f57816342966c6814610d11578163499d7f9614610cd957816349dd78a014610cb35781635c975abb14610c8f5781636801287514610c705781636b69e05b14610c465781636c2b459314610c2757816370a0823114610bf0578163715018a614610b8f57816379cc679014610b5c578163817b1cd214610b3d5781638456cb5914610aa95781638da5cb5b14610a7c5781638df456fb1461084b57816394eecb50146107e357816395d89b41146106e05781639aafd85d146106b9578163a457c2d714610611578163a5ce413b146104d4578163a9059cbb146104a3578163aa4704f3146103f8578163ab791e72146103d9578163d1420f47146103ba578163d47768de1461038d578163dd62ed3e14610344578163e58b69381461031e578163ebfdc555146102e6578163f2fde38b14610209575063f417085e146101e857600080fd5b34610205578160031936011261020557602090600e549051908152f35b5080fd5b9050346102e25760203660031901126102e257610224611365565b61022c6113f5565b6001600160a01b0381811693909290841561029057505060058054610100600160a81b03198116600893841b610100600160a81b031617909155901c167f8be0079c531659141344cd1fd0a4f28419497f9722a3daafe3b4186f6b6457e08380a380f35b906020608492519162461bcd60e51b8352820152602660248201527f4f776e61626c653a206e6577206f776e657220697320746865207a65726f206160448201526564647265737360d01b6064820152fd5b8280fd5b5050346102055760203660031901126102055760209181906001600160a01b0361030e611365565b1681526007845220549051908152f35b505034610205578160031936011261020557602090516af8277896582678ac0000008152f35b50503461020557806003193601126102055780602092610362611365565b61036a611380565b6001600160a01b0391821683526001865283832091168252845220549051908152f35b505034610205576020366003190112610205576020906103b36103ae611365565b611cab565b9051908152f35b505034610205578160031936011261020557602090600a549051908152f35b505034610205578160031936011261020557602090600b549051908152f35b9050346102e25760203660031901126102e25760c09282610417611365565b6001600160a01b0381168352600960205291208351919061043783611450565b805483526001810154946020840195865261047860ff6002840154968387019788526003850154946060880195865201541693608086019415158552611cab565b93519551945191519251151594815196875260208701528501526060840152608083015260a0820152f35b5050346102055780600319360112610205576020906104cd6104c3611365565b60243590336114c7565b5160018152f35b919050346102e257826003193601126102e2576104ef611ab3565b3383526009602052808320918083019283549161050e60ff8416611b09565b61052160018301546002840154906114a4565b42106105ce5750906003827f6f2d3e000c89d37446b7c0374c0125068ff316d1e3ee302336478a8cd03c23369493549561055a33611cab565b9388835560ff19169055016105708282546114a4565b905561057e84600d54611b47565b600d5561058c8433306114c7565b806105a7575b815193845260208401523392a2600160065580f35b6105b18133611b54565b33855260086020528185206105c78282546114a4565b9055610592565b606490602085519162461bcd60e51b8352820152601760248201527f4c6f636b20706572696f64206e6f7420657870697265640000000000000000006044820152fd5b905082346106b657826003193601126106b65761062c611365565b918360243592338152600160205281812060018060a01b0386168252602052205490828210610665576020856104cd8585038733611697565b608490602086519162461bcd60e51b8352820152602560248201527f45524332303a2064656372656173656420616c6c6f77616e63652062656c6f77604482015264207a65726f60d81b6064820152fd5b80fd5b505034610205578160031936011261020557602090516b014adf4b7320334b900000008152f35b838334610205578160031936011261020557805191809380549160019083821c928285169485156107d9575b60209586861081146107c6578589529081156107a2575060011461074a575b610746878761073c828c0383611482565b519182918261131c565b0390f35b81529295507f8a35acfbc15ff81a39ae7d344fd709f28e8600b4aa8c65c6b64bfe7fe36bd19b5b82841061078f57505050826107469461073c9282010194868061072b565b8054868501880152928601928101610771565b60ff19168887015250505050151560051b830101925061073c82610746868061072b565b634e487b7160e01b845260228352602484fd5b93607f169361070c565b919050346102e25760203660031901126102e25760a09281906001600160a01b0361080c611365565b16815260096020522080549260018201549260ff6002840154926003850154940154169381519586526020860152840152606083015215156080820152f35b919050346102e25760603660031901126102e25767ffffffffffffffff908235828111610a785761087f90369085016113c4565b939092602435818111610a745761089990369084016113c4565b9091604435908111610a70576108b29036908501611396565b9160018060a01b03946108cd8660055460081c163314611942565b818903610a3457508897895b828110610a0f57506109046b014adf4b7320334b900000006108fd8b600a546114a4565b1115611a26565b895b8a8282106109205761091a8b600a546114a4565b600a5580f35b90887fa077e66c5e5b6c7447b7285261e9960e3bc878711b28b0cddc58107ef7af5dd18989610a028a8f6109f4888c6109ee8f94838f610a0a9f928c8f6109c79061097e968f878b6109a69261098b8861098361097e868e8e611dbe565b611de4565b16151561199a565b6109a1610999848484611dbe565b3515156119da565b611dbe565b35936109b661097e898989611dbe565b1681526007602052209182546114a4565b90556109a18c6109e685896109e061097e838989611dbe565b93611dbe565b3590336114c7565b96611dbe565b359651948594169684611a72565b0390a2611daf565b610906565b98610a29610a2f91610a228c868a611dbe565b35906114a4565b99611daf565b6108d9565b606490602088519162461bcd60e51b83528201526016602482015275082e4e4c2f2e640d8cadccee8d040dad2e6dac2e8c6d60531b6044820152fd5b8780fd5b8680fd5b8480fd5b505034610205578160031936011261020557600554905160089190911c6001600160a01b03168152602090f35b9050346102e257826003193601126102e257610ac36113f5565b6005549060ff8216610b07575060ff1916600117600555513381527f62e78cea01bee320cd4e420270b5ea74000d11b0c9f74754ebdbfc544b05a25890602090a180f35b606490602084519162461bcd60e51b8352820152601060248201526f14185d5cd8589b194e881c185d5cd95960821b6044820152fd5b505034610205578160031936011261020557602090600d549051908152f35b505034610205573660031901126106b657610b8c610b78611365565b60243590610b87823383611799565b611831565b80f35b83346106b657806003193601126106b657610ba86113f5565b60058054610100600160a81b03198116909155819060081c6001600160a01b03167f8be0079c531659141344cd1fd0a4f28419497f9722a3daafe3b4186f6b6457e08280a380f35b5050346102055760203660031901126102055760209181906001600160a01b03610c18611365565b16815280845220549051908152f35b505034610205578160031936011261020557602090600f549051908152f35b83346106b657806003193601126106b657610c5f611ab3565b610c6833611c01565b600160065580f35b505034610205578160031936011261020557602090600c549051908152f35b50503461020557816003193601126102055760209060ff6005541690519015158152f35b505034610205578160031936011261020557602090516a7c13bc4b2c133c560000008152f35b5050346102055760203660031901126102055760209181906001600160a01b03610d01611365565b1681526008845220549051908152f35b83903461020557602036600319011261020557610b8c903533611831565b9050346102e257826003193601126102e257610d496113f5565b6005549060ff821615610d8b575060ff1916600555513381527f5db9ee0a495bf2e6ff9c91a7834c1ba4fdd244a5e8aa4e537bd38aeae4b073aa90602090a180f35b606490602084519162461bcd60e51b8352820152601460248201527314185d5cd8589b194e881b9bdd081c185d5cd95960621b6044820152fd5b838334610205578060031936011261020557823590602435610de5611ab3565b610df08315156119da565b600181101580610f4d575b15610f145733845283602052828285205410610eda57610e1c8330336114c7565b3384526009602052818420858101805460ff811615610ec9575050610e4033611c01565b610e4b8482546114a4565b81555b42600182015562278d0090818302918383041483151715610eb6579060027fdd2a19c3bdd089cbe77c04f5655f83de0504d6140d12c8667646f55d0557c4dc9493920155610e9e84600d546114a4565b600d55815193845260208401523392a2600160065580f35b634e487b7160e01b865260118752602486fd5b85835560ff19166001179055610e4e565b815162461bcd60e51b81526020818701526014602482015273496e73756666696369656e742062616c616e636560601b6044820152606490fd5b815162461bcd60e51b81526020818701526013602482015272125b9d985b1a59081b1bd8dac81c195c9a5bd9606a1b6044820152606490fd5b50603c811115610dfb565b5050346102055780600319360112610205576104cd602092610fa1610f7b611365565b338352600186528483206001600160a01b038216845286529184902054602435906114a4565b9033611697565b5050346102055781600319360112610205576020905160128152f35b9050346102e25760603660031901126102e257610fdf611365565b916024356044359267ffffffffffffffff84116110b8576110276110b2917fa077e66c5e5b6c7447b7285261e9960e3bc878711b28b0cddc58107ef7af5dd195369101611396565b90936110a88460018060a01b036110468160055460081c163314611942565b8916986110548a151561199a565b61105f8215156119da565b61107b6b014adf4b7320334b900000006108fd84600a546114a4565b898b526007602052838b206110918382546114a4565b905561109f82600a546114a4565b600a55336114c7565b5193849384611a72565b0390a280f35b8580fd5b505034610205578160031936011261020557602090516a295be96e640669720000008152f35b8284346106b657806003193601126106b657600a5491600b5490600c54600d54916b014adf4b7320334b9000000093868503948511611168576af8277896582678ac00000095818703968711611155575060c09750815196875260208701528501526060840152608083015260a0820152f35b634e487b7160e01b815260118952602490fd5b634e487b7160e01b865260118852602486fd5b505034610205576060366003190112610205576020906104cd61119c611365565b6111a4611380565b604435916111b3833383611799565b6114c7565b5050346102055781600319360112610205576020906002549051908152f35b505034610205578160031936011261020557602090516a52b7d2dcc80cd2e40000008152f35b5050346102055780600319360112610205576020906104cd61121d611365565b6024359033611697565b92915034611318578360031936011261131857600354600181811c918690828116801561130e575b60209586861082146112fb57508488529081156112d95750600114611280575b610746868661073c828b0383611482565b929550600383527fc2575a0e9e593c00f959f8c92f12db2869c3395a3b0502d05e2516446f71f85b5b8284106112c657505050826107469461073c92820101943861126f565b80548685018801529286019281016112a9565b60ff191687860152505050151560051b830101925061073c826107463861126f565b634e487b7160e01b845260229052602483fd5b93607f169361124f565b8380fd5b6020808252825181830181905290939260005b82811061135157505060409293506000838284010152601f8019910116010190565b81810186015184820160400152850161132f565b600435906001600160a01b038216820361137b57565b600080fd5b602435906001600160a01b038216820361137b57565b9181601f8401121561137b5782359167ffffffffffffffff831161137b576020838186019501011161137b57565b9181601f8401121561137b5782359167ffffffffffffffff831161137b576020808501948460051b01011161137b57565b60055460081c6001600160a01b0316330361140c57565b606460405162461bcd60e51b815260206004820152602060248201527f4f776e61626c653a2063616c6c6572206973206e6f7420746865206f776e65726044820152fd5b60a0810190811067ffffffffffffffff82111761146c57604052565b634e487b7160e01b600052604160045260246000fd5b90601f8019910116810190811067ffffffffffffffff82111761146c57604052565b919082018092116114b157565b634e487b7160e01b600052601160045260246000fd5b6001600160a01b0390811691821561164457169182156115f35760ff6005541661159b5760008281528060205260408120549180831061154757604082827fddf252ad1be2c89b69c2b068fc378daa952ba7f163c4a11628f55a4df523b3ef958760209652828652038282205586815220818154019055604051908152a3565b60405162461bcd60e51b815260206004820152602660248201527f45524332303a207472616e7366657220616d6f756e7420657863656564732062604482015265616c616e636560d01b6064820152608490fd5b60405162461bcd60e51b815260206004820152602a60248201527f45524332305061757361626c653a20746f6b656e207472616e736665722077686044820152691a5b19481c185d5cd95960b21b6064820152608490fd5b60405162461bcd60e51b815260206004820152602360248201527f45524332303a207472616e7366657220746f20746865207a65726f206164647260448201526265737360e81b6064820152608490fd5b60405162461bcd60e51b815260206004820152602560248201527f45524332303a207472616e736665722066726f6d20746865207a65726f206164604482015264647265737360d81b6064820152608490fd5b6001600160a01b0390811691821561174857169182156116f85760207f8c5be1e5ebec7d5bd14f71427d1e84f3dd0314c0f7b2291e5b200ac8c7c3b925918360005260018252604060002085600052825280604060002055604051908152a3565b60405162461bcd60e51b815260206004820152602260248201527f45524332303a20617070726f766520746f20746865207a65726f206164647265604482015261737360f01b6064820152608490fd5b60405162461bcd60e51b8152602060048201526024808201527f45524332303a20617070726f76652066726f6d20746865207a65726f206164646044820152637265737360e01b6064820152608490fd5b9060018060a01b03808316600052600160205260406000209082166000526020526040600020549260001984036117d1575b50505050565b8084106117ec576117e3930391611697565b388080806117cb565b60405162461bcd60e51b815260206004820152601d60248201527f45524332303a20696e73756666696369656e7420616c6c6f77616e63650000006044820152606490fd5b6001600160a01b031680156118f35760ff6005541661159b576000918183528260205260408320548181106118a357817fddf252ad1be2c89b69c2b068fc378daa952ba7f163c4a11628f55a4df523b3ef926020928587528684520360408620558060025403600255604051908152a3565b60405162461bcd60e51b815260206004820152602260248201527f45524332303a206275726e20616d6f756e7420657863656564732062616c616e604482015261636560f01b6064820152608490fd5b60405162461bcd60e51b815260206004820152602160248201527f45524332303a206275726e2066726f6d20746865207a65726f206164647265736044820152607360f81b6064820152608490fd5b1561194957565b60405162461bcd60e51b8152602060048201526024808201527f4e6f7420617574686f72697a656420746f2064697374726962757465207265776044820152636172647360e01b6064820152608490fd5b156119a157565b60405162461bcd60e51b8152602060048201526011602482015270125b9d985b1a59081c9958da5c1a595b9d607a1b6044820152606490fd5b156119e157565b60405162461bcd60e51b815260206004820152601d60248201527f416d6f756e74206d7573742062652067726561746572207468616e20300000006044820152606490fd5b15611a2d57565b60405162461bcd60e51b815260206004820152601960248201527f457863656564732064617461207265776172647320706f6f6c000000000000006044820152606490fd5b91926060938192845260406020850152816040850152848401376000828201840152601f01601f1916010190565b818102929181159184041417156114b157565b600260065414611ac4576002600655565b60405162461bcd60e51b815260206004820152601f60248201527f5265656e7472616e637947756172643a207265656e7472616e742063616c6c006044820152606490fd5b15611b1057565b60405162461bcd60e51b815260206004820152600f60248201526e4e6f20616374697665207374616b6560881b6044820152606490fd5b919082039182116114b157565b6001600160a01b0316908115611bbc5760ff6005541661159b577fddf252ad1be2c89b69c2b068fc378daa952ba7f163c4a11628f55a4df523b3ef602082611ba06000946002546114a4565b60025584845283825260408420818154019055604051908152a3565b60405162461bcd60e51b815260206004820152601f60248201527f45524332303a206d696e7420746f20746865207a65726f2061646472657373006044820152606490fd5b60018060a01b038116908160005260096020526040600020611c2960ff600483015416611b09565b611c3282611cab565b80611c3d5750505050565b611c81817f6dd401e61ba732582a5eba3d54ccc3afb3609cd3ac1a166d1d36f75fc0aedcda94600360209542600182015501611c7a8382546114a4565b9055611b54565b83600052600882526040600020611c998282546114a4565b9055604051908152a2388080806117cb565b6001600160a01b03166000908152600960205260408082209051919291611cd181611450565b815480825260018301549081602084015260ff60046002860154956040860196875260038101546060870152015416159081159182608086015291611da6575b50611da157611d4362278d00926064611d3d611d326301e133809542611b47565b9251600e5490611aa0565b04611aa0565b049151048060011b9080820460021490151715611d8d57611d7c611d839394606492600f549150818111600014611d8657505b83611aa0565b04906114a4565b90565b9050611d76565b634e487b7160e01b84526011600452602484fd5b505050565b90501538611d11565b60001981146114b15760010190565b9190811015611dce5760051b0190565b634e487b7160e01b600052603260045260246000fd5b356001600160a01b038116810361137b579056fea2646970667358221220076b80bda834a763e75bf5fb17b5fdc0d61102d15370a4e30385e53761fe60d264736f6c63430008130033",
  "immutableReferences": {},
  "source": "// SPDX-License-Identifier: MIT\r\npragma solidity ^0.8.19;\r\n\r\nimport \"@openzeppelin/contracts/token/ERC20/ERC20.sol\";\r\nimport \"@openzeppelin/contracts/token/ERC20/extensions/ERC20Burnable.sol\";\r\nimport \"@openzeppelin/contracts/token/ERC20/extensions/ERC20Pausable.sol\";\r\nimport \"@openzeppelin/contracts/access/Ownable.sol\";\r\nimport \"@openzeppelin/contracts/security/ReentrancyGuard.sol\";\r\n\r\n/**\r\n * @title DCNETToken\r\n * @dev DeCliNet utility token with reward distribution and staking capabilities\r\n */\r\ncontract DCNETToken is ERC20, ERC20Burnable, ERC20Pausable, Ownable, ReentrancyGuard {\r\n    \r\n    // Token allocation percentages\r\n    uint256 public constant DATA_REWARDS_POOL = 400_000_000 * 10**18; // 40%\r\n    uint256 public constant RESEARCH_FUNDING_POOL = 300_000_000 * 10**18; // 30%\r\n    uint256 public constant GOVERNANCE_POOL = 150_000_000 * 10**18; // 15%\r\n    uint256 public constant TEAM_POOL = 100_000_000 * 10**18; // 10%\r\n    uint256 public constant ECOSYSTEM_POOL = 50_000_000 * 10**18; // 5%\r\n    \r\n    // Vesting and distribution tracking\r\n    mapping(address => uint256) public dataRewardsEarned;\r\n    mapping(address => uint256) public stakingRewards;\r\n    mapping(address => StakingInfo) public stakingInfo;\r\n    \r\n    struct StakingInfo {\r\n        uint256 stakedAmount;\r\n        uint256 stakeTimestamp;\r\n        uint256 lockPeriod;\r\n        uint256 rewardsEarned;\r\n        bool isActive;\r\n    }\r\n    \r\n    // Pool tracking\r\n    uint256 public dataRewardsDistributed;\r\n    uint256 public researchFundingDistributed;\r\n    uint256 public governanceDistributed;\r\n    uint256 public totalStaked;\r\n    \r\n    // Staking parameters\r\n    uint256 public baseStakingRate = 12; // 12% APY\r\n    uint256 public maxStakingBonus = 100; // 100% bonus for long-term staking\r\n    \r\n    // Events\r\n    event DataRewardDistributed(address indexed recipient, uint256 amount, string reason);\r\n    event TokensStaked(address indexed staker, uint256 amount, uint256 lockPeriod);\r\n    event TokensUnstaked(address indexed staker, uint256 amount, uint256 rewards);\r\n    event StakingRewardClaimed(address indexed staker, uint256 amount);\r\n    \r\n    modifier onlyAuthorizedRewarder() {\r\n        // In production, implement proper role-based access control\r\n        require(msg.sender == owner(), \"Not authorized to distribute rewards\");\r\n        _;\r\n    }\r\n    \r\n    constructor() ERC20(\"DeCliNet Token\", \"DCNET\") {\r\n        // Mint initial supply to contract owner for controlled distribution\r\n        _mint(msg.sender, 1_000_000_000 * 10**18); // 1 billion tokens\r\n    }\r\n    \r\n    /**\r\n     * @dev Distribute rewards for data contribution\r\n     */\r\n    function distributeDataReward(\r\n        address recipient,\r\n        uint256 amount,\r\n        string calldata reason\r\n    ) external onlyAuthorizedRewarder {\r\n        require(recipient != address(0), \"Invalid recipient\");\r\n        require(amount > 0, \"Amount must be greater than 0\");\r\n        require(\r\n            dataRewardsDistributed + amount <= DATA_REWARDS_POOL,\r\n            \"Exceeds data rewards pool\"\r\n        );\r\n        \r\n        dataRewardsEarned[recipient] += amount;\r\n        dataRewardsDistributed += amount;\r\n        \r\n        _transfer(msg.sender, recipient, amount);\r\n        \r\n        emit DataRewardDistributed(recipient, amount, reason);\r\n    }\r\n    \r\n    /**\r\n     * @dev Stake tokens for rewards\r\n     */\r\n    function stakeTokens(uint256 amount, uint256 lockPeriodMonths) external nonReentrant {\r\n        require(amount > 0, \"Amount must be greater than 0\");\r\n        require(lockPeriodMonths >= 1 && lockPeriodMonths <= 60, \"Invalid lock period\");\r\n        require(balanceOf(msg.sender) >= amount, \"Insufficient balance\");\r\n        \r\n        // Transfer tokens to contract\r\n        _transfer(msg.sender, address(this), amount);\r\n        \r\n        StakingInfo storage userStake = stakingInfo[msg.sender];\r\n        \r\n        if (userStake.isActive) {\r\n            // If already staking, claim existing rewards first\r\n            _claimStakingRewards(msg.sender);\r\n            userStake.stakedAmount += amount;\r\n        } else {\r\n            userStake.stakedAmount = amount;\r\n            userStake.isActive = true;\r\n        }\r\n        \r\n        userStake.stakeTimestamp = block.timestamp;\r\n        userStake.lockPeriod = lockPeriodMonths * 30 days; // Approximate months in seconds\r\n        \r\n        totalStaked += amount;\r\n        \r\n        emit TokensStaked(msg.sender, amount, lockPeriodMonths);\r\n    }\r\n    \r\n    /**\r\n     * @dev Unstake tokens and claim rewards\r\n     */\r\n    function unstakeTokens() external nonReentrant {\r\n        StakingInfo storage userStake = stakingInfo[msg.sender];\r\n        \r\n        require(userStake.isActive, \"No active stake\");\r\n        require(\r\n            block.timestamp >= userStake.stakeTimestamp + userStake.lockPeriod,\r\n            \"Lock period not expired\"\r\n        );\r\n        \r\n        uint256 stakedAmount = userStake.stakedAmount;\r\n        uint256 rewards = calculateStakingRewards(msg.sender);\r\n        \r\n        // Reset staking info\r\n        userStake.stakedAmount = 0;\r\n        userStake.isActive = false;\r\n        userStake.rewardsEarned += rewards;\r\n        \r\n        totalStaked -= stakedAmount;\r\n        \r\n        // Transfer staked tokens back to user\r\n        _transfer(address(this), msg.sender, stakedAmount);\r\n        \r\n        // Mint and distribute rewards (if any)\r\n        if (rewards > 0) {\r\n            _mint(msg.sender, rewards);\r\n            stakingRewards[msg.sender] += rewards;\r\n        }\r\n        \r\n        emit TokensUnstaked(msg.sender, stakedAmount, rewards);\r\n    }\r\n    \r\n    /**\r\n     * @dev Claim staking rewards without unstaking\r\n     */\r\n    function claimStakingRewards() external nonReentrant {\r\n        _claimStakingRewards(msg.sender);\r\n    }\r\n    \r\n    function _claimStakingRewards(address staker) internal {\r\n        StakingInfo storage userStake = stakingInfo[staker];\r\n        require(userStake.isActive, \"No active stake\");\r\n        \r\n        uint256 rewards = calculateStakingRewards(staker);\r\n        \r\n        if (rewards > 0) {\r\n            userStake.stakeTimestamp = block.timestamp; // Reset reward calculation timestamp\r\n            userStake.rewardsEarned += rewards;\r\n            \r\n            _mint(staker, rewards);\r\n            stakingRewards[staker] += rewards;\r\n            \r\n            emit StakingRewardClaimed(staker, rewards);\r\n        }\r\n    }\r\n    \r\n    /**\r\n     * @dev Calculate staking rewards for a user\r\n     */\r\n    function calculateStakingRewards(address staker) public view returns (uint256) {\r\n        StakingInfo memory userStake = stakingInfo[staker];\r\n        \r\n        if (!userStake.isActive || userStake.stakedAmount == 0) {\r\n            return 0;\r\n        }\r\n        \r\n        uint256 stakingDuration = block.timestamp - userStake.stakeTimestamp;\r\n        uint256 annualReward = (userStake.stakedAmount * baseStakingRate) / 100;\r\n        \r\n        // Calculate time-based reward\r\n        uint256 timeReward = (annualReward * stakingDuration) / 365 days;\r\n        \r\n        // Calculate lock period bonus\r\n        uint256 lockBonusPercentage = (userStake.lockPeriod / 30 days) * 2; // 2% per month\r\n        lockBonusPercentage = lockBonusPercentage > maxStakingBonus ? maxStakingBonus : lockBonusPercentage;\r\n        \r\n        uint256 bonusReward = (timeReward * lockBonusPercentage) / 100;\r\n        \r\n        return timeReward + bonusReward;\r\n    }\r\n    \r\n    /**\r\n     * @dev Get user staking information\r\n     */\r\n    function getStakingInfo(address staker) external view returns (\r\n        uint256 stakedAmount,\r\n        uint256 stakeTimestamp,\r\n        uint256 lockPeriod,\r\n        uint256 rewardsEarned,\r\n        uint256 pendingRewards,\r\n        bool isActive\r\n    ) {\r\n        StakingInfo memory userStake = stakingInfo[staker];\r\n        uint256 pending = calculateStakingRewards(staker);\r\n        \r\n        return (\r\n            userStake.stakedAmount,\r\n            userStake.stakeTimestamp,\r\n            userStake.lockPeriod,\r\n            userStake.rewardsEarned,\r\n            pending,\r\n            userStake.isActive\r\n        );\r\n    }\r\n    \r\n    /**\r\n     * @dev Batch reward distribution for efficiency\r\n     */\r\n    function batchDistributeRewards(\r\n        address[] calldata recipients,\r\n        uint256[] calldata amounts,\r\n        string calldata reason\r\n    ) external onlyAuthorizedRewarder {\r\n        require(recipients.length == amounts.length, \"Arrays length mismatch\");\r\n        \r\n        uint256 totalAmount = 0;\r\n        for (uint256 i = 0; i < amounts.length; i++) {\r\n            totalAmount += amounts[i];\r\n        }\r\n        \r\n        require(\r\n            dataRewardsDistributed + totalAmount <= DATA_REWARDS_POOL,\r\n            \"Exceeds data rewards pool\"\r\n        );\r\n        \r\n        for (uint256 i = 0; i < recipients.length; i++) {\r\n            require(recipients[i] != address(0), \"Invalid recipient\");\r\n            require(amounts[i] > 0, \"Amount must be greater than 0\");\r\n            \r\n            dataRewardsEarned[recipients[i]] += amounts[i];\r\n            _transfer(msg.sender, recipients[i], amounts[i]);\r\n            \r\n            emit DataRewardDistributed(recipients[i], amounts[i], reason);\r\n        }\r\n        \r\n        dataRewardsDistributed += totalAmount;\r\n    }\r\n    \r\n    /**\r\n     * @dev Get token distribution statistics\r\n     */\r\n    function getDistributionStats() external view returns (\r\n        uint256 _dataRewardsDistributed,\r\n        uint256 _researchFundingDistributed,\r\n        uint256 _governanceDistributed,\r\n        uint256 _totalStaked,\r\n        uint256 dataRewardsRemaining,\r\n        uint256 researchFundingRemaining\r\n    ) {\r\n        return (\r\n            dataRewardsDistributed,\r\n            researchFundingDistributed,\r\n            governanceDistributed,\r\n            totalStaked,\r\n            DATA_REWARDS_POOL - dataRewardsDistributed,\r\n            RESEARCH_FUNDING_POOL - researchFundingDistributed\r\n        );\r\n    }\r\n    \r\n    // Override required by Solidity for multiple inheritance\r\n    function _beforeTokenTransfer(address from, address to, uint256 amount)\r\n        internal\r\n        override(ERC20, ERC20Pausable)\r\n    {\r\n        super._beforeTokenTransfer(from, to, amount);\r\n    }\r\n    \r\n    /**\r\n     * @dev Emergency pause functionality\r\n     */\r\n    function pause() external onlyOwner {\r\n        _pause();\r\n    }\r\n    \r\n    function unpause() external onlyOwner {\r\n        _unpause();\r\n    }\r\n}",
  "sourcePath": "E:\\projects\\DeCliNet\\contracts\\contracts\\DCNETToken.sol",
  "compiler": {
    "name": "solc",
    "version": "0.8.19+commit.7dd6d404.Emscripten.clang"
  },
  "schemaVersion": "3.4.16",
  "updatedAt": "2025-08-22T12:35:10.163Z",
  "networkType": "ethereum",
  "devdoc": {
    "details": "DeCliNet utility token with reward distribution and staking capabilities",
    "events": {
      "Approval(address,address,uint256)": {
        "details": "Emitted when the allowance of a `spender` for an `owner` is set by a call to {approve}. `value` is the new allowance."
      },
      "Paused(address)": {
        "details": "Emitted when the pause is triggered by `account`."
      },
      "Transfer(address,address,uint256)": {
        "details": "Emitted when `value` tokens are moved from one account (`from`) to another (`to`). Note that `value` may be zero."
      },
      "Unpaused(address)": {
        "details": "Emitted when the pause is lifted by `account`."
      }
    },
    "kind": "dev",
    "methods": {
      "allowance(address,address)": {
        "details": "See {IERC20-allowance}."
      },
      "approve(address,uint256)": {
        "details": "See {IERC20-approve}. NOTE: If `amount` is the maximum `uint256`, the allowance is not updated on `transferFrom`. This is semantically equivalent to an infinite approval. Requirements: - `spender` cannot be the zero address."
      },
      "balanceOf(address)": {
        "details": "See {IERC20-balanceOf}."
      },
      "batchDistributeRewards(address[],uint256[],string)": {
        "details": "Batch reward distribution for efficiency"
      },
      "burn(uint256)": {
        "details": "Destroys `amount` tokens from the caller. See {ERC20-_burn}."
      },
      "burnFrom(address,uint256)": {
        "details": "Destroys `amount` tokens from `account`, deducting from the caller's allowance. See {ERC20-_burn} and {ERC20-allowance}. Requirements: - the caller must have allowance for ``accounts``'s tokens of at least `amount`."
      },
      "calculateStakingRewards(address)": {
        "details": "Calculate staking rewards for a user"
      },
      "claimStakingRewards()": {
        "details": "Claim staking rewards without unstaking"
      },
      "decimals()": {
        "details": "Returns the number of decimals used to get its user representation. For example, if `decimals` equals `2`, a balance of `505` tokens should be displayed to a user as `5.05` (`505 / 10 ** 2`). Tokens usually opt for a value of 18, imitating the relationship between Ether and Wei. This is the default value returned by this function, unless it's overridden. NOTE: This information is only used for _display_ purposes: it in no way affects any of the arithmetic of the contract, including {IERC20-balanceOf} and {IERC20-transfer}."
      },
      "decreaseAllowance(address,uint256)": {
        "details": "Atomically decreases the allowance granted to `spender` by the caller. This is an alternative to {approve} that can be used as a mitigation for problems described in {IERC20-approve}. Emits an {Approval} event indicating the updated allowance. Requirements: - `spender` cannot be the zero address. - `spender` must have allowance for the caller of at least `subtractedValue`."
      },
      "distributeDataReward(address,uint256,string)": {
        "details": "Distribute rewards for data contribution"
      },
      "getDistributionStats()": {
        "details": "Get token distribution statistics"
      },
      "getStakingInfo(address)": {
        "details": "Get user staking information"
      },
      "increaseAllowance(address,uint256)": {
        "details": "Atomically increases the allowance granted to `spender` by the caller. This is an alternative to {approve} that can be used as a mitigation for problems described in {IERC20-approve}. Emits an {Approval} event indicating the updated allowance. Requirements: - `spender` cannot be the zero address."
      },
      "name()": {
        "details": "Returns the name of the token."
      },
      "owner()": {
        "details": "Returns the address of the current owner."
      },
      "pause()": {
        "details": "Emergency pause functionality"
      },
      "paused()": {
        "details": "Returns true if the contract is paused, and false otherwise."
      },
      "renounceOwnership()": {
        "details": "Leaves the contract without owner. It will not be possible to call `onlyOwner` functions. Can only be called by the current owner. NOTE: Renouncing ownership will leave the contract without an owner, thereby disabling any functionality that is only available to the owner."
      },
      "stakeTokens(uint256,uint256)": {
        "details": "Stake tokens for rewards"
      },
      "symbol()": {
        "details": "Returns the symbol of the token, usually a shorter version of the name."
      },
      "totalSupply()": {
        "details": "See {IERC20-totalSupply}."
      },
      "transfer(address,uint256)": {
        "details": "See {IERC20-transfer}. Requirements: - `to` cannot be the zero address. - the caller must have a balance of at least `amount`."
      },
      "transferFrom(address,address,uint256)": {
        "details": "See {IERC20-transferFrom}. Emits an {Approval} event indicating the updated allowance. This is not required by the EIP. See the note at the beginning of {ERC20}. NOTE: Does not update the allowance if the current allowance is the maximum `uint256`. Requirements: - `from` and `to` cannot be the zero address. - `from` must have a balance of at least `amount`. - the caller must have allowance for ``from``'s tokens of at least `amount`."
      },
      "transferOwnership(address)": {
        "details": "Transfers ownership of the contract to a new account (`newOwner`). Can only be called by the current owner."
      },
      "unstakeTokens()": {
        "details": "Unstake tokens and claim rewards"
      }
    },
    "title": "DCNETToken",
    "version": 1
  },
  "userdoc": {
    "kind": "user",
    "methods": {},
    "version": 1
  }
}