{
  "contractName": "FederatedLearning",
  "abi": [
    {
      "anonymous": false,
      "inputs": [
        {
          "indexed": true,
          "internalType": "uint256",
          "name": "roundId",
          "type": "uint256"
        },
        {
          "indexed": true,
          "internalType": "uint256",
          "name": "clientId",
          "type": "uint256"
        },
        {
          "indexed": false,
          "internalType": "string",
          "name": "updateHash",
          "type": "string"
        },
        {
          "indexed": false,
          "internalType": "uint256",
          "name": "accuracy",
          "type": "uint256"
        },
        {
          "indexed": false,
          "internalType": "uint256",
          "name": "loss",
          "type": "uint256"
        },
        {
          "indexed": false,
          "internalType": "uint256",
          "name": "samples",
          "type": "uint256"
        },
        {
          "indexed": false,
          "internalType": "uint256",
          "name": "timestamp",
          "type": "uint256"
        }
      ],
      "name": "ClientParticipated",
      "type": "event"
    },
    {
      "anonymous": false,
      "inputs": [
        {
          "indexed": true,
          "internalType": "address",
          "name": "previousOwner",
          "type": "address"
        },
        {
          "indexed": true,
          "internalType": "address",
          "name": "newOwner",
          "type": "address"
        }
      ],
      "name": "OwnershipTransferred",
      "type": "event"
    },
    {
      "anonymous": false,
      "inputs": [
        {
          "indexed": true,
          "internalType": "uint256",
          "name": "roundId",
          "type": "uint256"
        },
        {
          "indexed": false,
          "internalType": "string",
          "name": "globalModelHash",
          "type": "string"
        },
        {
          "indexed": false,
          "internalType": "uint256",
          "name": "accuracy",
          "type": "uint256"
        },
        {
          "indexed": false,
          "internalType": "uint256",
          "name": "loss",
          "type": "uint256"
        },
        {
          "indexed": false,
          "internalType": "uint256",
          "name": "timestamp",
          "type": "uint256"
        }
      ],
      "name": "TrainingRoundCompleted",
      "type": "event"
    },
    {
      "anonymous": false,
      "inputs": [
        {
          "indexed": true,
          "internalType": "uint256",
          "name": "roundId",
          "type": "uint256"
        },
        {
          "indexed": false,
          "internalType": "uint256",
          "name": "participants",
          "type": "uint256"
        },
        {
          "indexed": false,
          "internalType": "uint256",
          "name": "timestamp",
          "type": "uint256"
        }
      ],
      "name": "TrainingRoundStarted",
      "type": "event"
    },
    {
      "inputs": [
        {
          "internalType": "uint256",
          "name": "",
          "type": "uint256"
        }
      ],
      "name": "clientParticipationCount",
      "outputs": [
        {
          "internalType": "uint256",
          "name": "",
          "type": "uint256"
        }
      ],
      "stateMutability": "view",
      "type": "function",
      "constant": true
    },
    {
      "inputs": [
        {
          "internalType": "uint256",
          "name": "",
          "type": "uint256"
        },
        {
          "internalType": "uint256",
          "name": "",
          "type": "uint256"
        }
      ],
      "name": "clientParticipations",
      "outputs": [
        {
          "internalType": "uint256",
          "name": "clientId",
          "type": "uint256"
        },
        {
          "internalType": "uint256",
          "name": "roundId",
          "type": "uint256"
        },
        {
          "internalType": "string",
          "name": "updateHash",
          "type": "string"
        },
        {
          "internalType": "uint256",
          "name": "accuracy",
          "type": "uint256"
        },
        {
          "internalType": "uint256",
          "name": "loss",
          "type": "uint256"
        },
        {
          "internalType": "uint256",
          "name": "samples",
          "type": "uint256"
        },
        {
          "internalType": "uint256",
          "name": "timestamp",
          "type": "uint256"
        }
      ],
      "stateMutability": "view",
      "type": "function",
      "constant": true
    },
    {
      "inputs": [],
      "name": "owner",
      "outputs": [
        {
          "internalType": "address",
          "name": "",
          "type": "address"
        }
      ],
      "stateMutability": "view",
      "type": "function",
      "constant": true
    },
    {
      "inputs": [],
      "name": "renounceOwnership",
      "outputs": [],
      "stateMutability": "nonpayable",
      "type": "function"
    },
    {
      "inputs": [],
      "name": "roundCount",
      "outputs": [
        {
          "internalType": "uint256",
          "name": "",
          "type": "uint256"
        }
      ],
      "stateMutability": "view",
      "type": "function",
      "constant": true
    },
    {
      "inputs": [],
      "name": "totalParticipations",
      "outputs": [
        {
          "internalType": "uint256",
          "name": "",
          "type": "uint256"
        }
      ],
      "stateMutability": "view",
      "type": "function",
      "constant": true
    },
    {
      "inputs": [
        {
          "internalType": "uint256",
          "name": "",
          "type": "uint256"
        }
      ],
      "name": "trainingRounds",
      "outputs": [
        {
          "internalType": "uint256",
          "name": "roundId",
          "type": "uint256"
        },
        {
          "internalType": "uint256",
          "name": "startTimestamp",
          "type": "uint256"
        },
        {
          "internalType": "uint256",
          "name": "endTimestamp",
          "type": "uint256"
        },
        {
          "internalType": "uint256",
          "name": "numberOfParticipants",
          "type": "uint256"
        },
        {
          "internalType": "string",
          "name": "globalModelHash",
          "type": "string"
        },
        {
          "internalType": "uint256",
          "name": "accuracy",
          "type": "uint256"
        },
        {
          "internalType": "uint256",
          "name": "loss",
          "type": "uint256"
        },
        {
          "internalType": "bool",
          "name": "isCompleted",
          "type": "bool"
        }
      ],
      "stateMutability": "view",
      "type": "function",
      "constant": true
    },
    {
      "inputs": [
        {
          "internalType": "address",
          "name": "newOwner",
          "type": "address"
        }
      ],
      "name": "transferOwnership",
      "outputs": [],
      "stateMutability": "nonpayable",
      "type": "function"
    },
    {
      "inputs": [
        {
          "internalType": "uint256",
          "name": "participants",
          "type": "uint256"
        }
      ],
      "name": "recordTrainingRoundStart",
      "outputs": [],
      "stateMutability": "nonpayable",
      "type": "function"
    },
    {
      "inputs": [
        {
          "internalType": "uint256",
          "name": "clientId",
          "type": "uint256"
        },
        {
          "internalType": "uint256",
          "name": "roundId",
          "type": "uint256"
        },
        {
          "internalType": "string",
          "name": "updateHash",
          "type": "string"
        },
        {
          "internalType": "uint256",
          "name": "accuracy",
          "type": "uint256"
        },
        {
          "internalType": "uint256",
          "name": "loss",
          "type": "uint256"
        },
        {
          "internalType": "uint256",
          "name": "samples",
          "type": "uint256"
        }
      ],
      "name": "recordClientParticipation",
      "outputs": [],
      "stateMutability": "nonpayable",
      "type": "function"
    },
    {
      "inputs": [
        {
          "internalType": "uint256",
          "name": "roundId",
          "type": "uint256"
        },
        {
          "internalType": "string",
          "name": "globalModelHash",
          "type": "string"
        },
        {
          "internalType": "uint256",
          "name": "accuracy",
          "type": "uint256"
        },
        {
          "internalType": "uint256",
          "name": "loss",
          "type": "uint256"
        }
      ],
      "name": "recordTrainingRoundCompletion",
      "outputs": [],
      "stateMutability": "nonpayable",
      "type": "function"
    },
    {
      "inputs": [
        {
          "internalType": "uint256",
          "name": "roundId",
          "type": "uint256"
        }
      ],
      "name": "getTrainingRound",
      "outputs": [
        {
          "internalType": "uint256",
          "name": "startTimestamp",
          "type": "uint256"
        },
        {
          "internalType": "uint256",
          "name": "endTimestamp",
          "type": "uint256"
        },
        {
          "internalType": "uint256",
          "name": "numberOfParticipants",
          "type": "uint256"
        },
        {
          "internalType": "uint256",
          "name": "actualParticipants",
          "type": "uint256"
        },
        {
          "internalType": "string",
          "name": "globalModelHash",
          "type": "string"
        },
        {
          "internalType": "uint256",
          "name": "accuracy",
          "type": "uint256"
        },
        {
          "internalType": "uint256",
          "name": "loss",
          "type": "uint256"
        },
        {
          "internalType": "bool",
          "name": "isCompleted",
          "type": "bool"
        }
      ],
      "stateMutability": "view",
      "type": "function",
      "constant": true
    },
    {
      "inputs": [
        {
          "internalType": "uint256",
          "name": "roundId",
          "type": "uint256"
        },
        {
          "internalType": "uint256",
          "name": "clientId",
          "type": "uint256"
        }
      ],
      "name": "getClientParticipation",
      "outputs": [
        {
          "internalType": "string",
          "name": "updateHash",
          "type": "string"
        },
        {
          "internalType": "uint256",
          "name": "accuracy",
          "type": "uint256"
        },
        {
          "internalType": "uint256",
          "name": "loss",
          "type": "uint256"
        },
        {
          "internalType": "uint256",
          "name": "samples",
          "type": "uint256"
        },
        {
          "internalType": "uint256",
          "name": "timestamp",
          "type": "uint256"
        }
      ],
      "stateMutability": "view",
      "type": "function",
      "constant": true
    },
    {
      "inputs": [],
      "name": "getStatistics",
      "outputs": [
        {
          "internalType": "uint256",
          "name": "totalRounds",
          "type": "uint256"
        },
        {
          "internalType": "uint256",
          "name": "completedRounds",
          "type": "uint256"
        },
        {
          "internalType": "uint256",
          "name": "activeRounds",
          "type": "uint256"
        },
        {
          "internalType": "uint256",
          "name": "_totalParticipations",
          "type": "uint256"
        },
        {
          "internalType": "uint256",
          "name": "averageParticipantsPerRound",
          "type": "uint256"
        }
      ],
      "stateMutability": "view",
      "type": "function",
      "constant": true
    }
  ],
  "bytecode": "0x6080806040523461005f5760008054336001600160a01b0319821681178355916001600160a01b03909116907f8be0079c531659141344cd1fd0a4f28419497f9722a3daafe3b4186f6b6457e09080a360018055610ecb90816100658239f35b600080fdfe6080604052600436101561001257600080fd5b60003560e01c80630796260914610b1d578063127f0b3f14610aff5780632ec17f4a14610ae1578063372d6b2714610a0c578063715018a6146109b357806380ab1ee3146106af5780638da5cb5b14610686578063a86914531461065a578063d5f51996146105ce578063d5fe40d81461053d578063f2fde38b14610472578063f36138e014610241578063fad9b085146101b25763fae8d042146100b657600080fd5b346101ad576100c436610d20565b90801515806101a1575b6100d790610de9565b60005260036020526040600020906000526020526040600020600681015490811561014b576101329160038201549060048301549261011d600260058301549201610bba565b9360405195869560a0875260a0870190610c6f565b9360208601526040850152606084015260808301520390f35b60405162461bcd60e51b815260206004820152602860248201527f436c69656e7420646964206e6f7420706172746963697061746520696e2074686044820152671a5cc81c9bdd5b9960c21b6064820152608490fd5b506005548111156100ce565b600080fd5b346101ad5760203660031901126101ad5760043580151580610235575b6101d890610de9565b6000526002602052604060002060018101546102316002830154926003810154600460205260406000205490600583015490600684015492610224600460ff6007880154169601610bba565b9160405198899889610caf565b0390f35b506005548111156101cf565b346101ad5760803660031901126101ad5767ffffffffffffffff6004356024358281116101ad57610276903690600401610cf2565b60443560643561029160018060a01b03600054163314610d8e565b84151580610466575b6102a390610de9565b8460005260209160028352604060002060078101906102c660ff83541615610e28565b60048101988611610450576102db8954610b80565b601f811161040a575b50600098601f871160011461038657867fa55c685b922ea66efd16737cbf00f8323d5c8326e2fd7419cad53f493ded5758999a60009161037b575b508760011b906000198960031b1c19161790555b826005820155836006820155600242910155600160ff19825416179055610367604051958695608087526080870191610e74565b9284015260408301524260608301520390a2005b90508801358b61031f565b601f1987169981600052866000209060005b8c81106103f35750887fa55c685b922ea66efd16737cbf00f8323d5c8326e2fd7419cad53f493ded57589b9c106103d9575b5050600187811b019055610333565b89013560001960038a901b60f8161c191690558a806103ca565b90918860018192858e013581550193019101610398565b8960005285600020601f880160051c810191878910610446575b601f0160051c01905b81811061043a57506102e4565b6000815560010161042d565b9091508190610424565b634e487b7160e01b600052604160045260246000fd5b5060055485111561029a565b346101ad5760203660031901126101ad576004356001600160a01b03818116918290036101ad576104a1610d36565b81156104e957600054826bffffffffffffffffffffffff60a01b821617600055167f8be0079c531659141344cd1fd0a4f28419497f9722a3daafe3b4186f6b6457e0600080a3005b60405162461bcd60e51b815260206004820152602660248201527f4f776e61626c653a206e6577206f776e657220697320746865207a65726f206160448201526564647265737360d01b6064820152608490fd5b346101ad5760203660031901126101ad5760043561056660018060a01b03600054163314610d8e565b7ffeb3dc1e1f43efefa2ffcd889cf3be99a5499bbf1620d9a5b75d528b7ae41af26040610594600554610dda565b92836005558360005260026020526007826000208581554260018201558260038201550160ff1981541690558151908152426020820152a2005b346101ad576105dc36610d20565b9060005260036020526040600020906000526020526040600020805460018201549161060a60028201610bba565b600382015491600481015461064160066005840154930154936040519788978852602088015260e0604088015260e0870190610c6f565b936060860152608085015260a084015260c08301520390f35b346101ad5760203660031901126101ad5760043560005260046020526020604060002054604051908152f35b346101ad5760003660031901126101ad576000546040516001600160a01b039091168152602090f35b346101ad5760c03660031901126101ad5767ffffffffffffffff6044358181116101ad576106e1903690600401610cf2565b906106f760018060a01b03600054163314610d8e565b6024351515806109a5575b61070b90610de9565b811561096a5760a4351561092557602435600052600260205261073960ff6007604060002001541615610e28565b6024356000526003602052604060002060043560005260205260406000209060043582556001936024358584015583116104505761077a6002830154610b80565b601f81116108d7575b50600093601f84116001146108695792806108139394819660009361085e575b501b906000198660031b1c19161760028401555b60643560038401556084359283600482015560a4356005820155600642910155602435600052600460205260406000206107f18154610dda565b90556107fe600654610dda565b6006556040519360a0855260a0850191610e74565b906064356020840152604083015260a43560608301524260808301527fb6002360fd3d6ef3ed93ca49689348171182de103d659093efb094106cbbd7586004359280602435930390a3005b8401359250876107a3565b6002830160005260206000206000955b601f19861687106108c1578561081395969750601f198116106108a7575b505084811b0160028401556107b7565b830135600019600388901b60f8161c191690558580610897565b8381013582556020968701969183019101610879565b600283016000526020600020601f850160051c8101916020861061091b575b601f0160051c019085905b82811061090f575050610783565b60008155018590610901565b90915081906108f6565b60405162461bcd60e51b815260206004820152601d60248201527f4d7573742068617665206174206c65617374206f6e652073616d706c650000006044820152606490fd5b60405162461bcd60e51b8152602060048201526013602482015272092dcecc2d8d2c840eae0c8c2e8ca40d0c2e6d606b1b6044820152606490fd5b506005546024351115610702565b346101ad5760003660031901126101ad576109cc610d36565b600080546001600160a01b0319811682556001600160a01b03167f8be0079c531659141344cd1fd0a4f28419497f9722a3daafe3b4186f6b6457e08280a3005b346101ad5760003660031901126101ad5760006001600554905b81811115610aa45750801580610a9c5760065490610a86578190045b82820392828411610a705760a093600654916040519485526020850152604084015260608301526080820152f35b634e487b7160e01b600052601160045260246000fd5b634e487b7160e01b600052601260045260246000fd5b506000610a42565b80600052600260205260ff60076040600020015416610acc575b610ac790610dda565b610a26565b91610ad9610ac791610dda565b929050610abe565b346101ad5760003660031901126101ad576020600654604051908152f35b346101ad5760003660031901126101ad576020600554604051908152f35b346101ad5760203660031901126101ad576004356000526002602052604060002080546102316001830154926002810154906003810154610b6060048301610bba565b60058301549160ff60076006860154950154169460405198899889610caf565b90600182811c92168015610bb0575b6020831014610b9a57565b634e487b7160e01b600052602260045260246000fd5b91607f1691610b8f565b9060405191600090805490610bce82610b80565b908186526001928381169081600014610c4e5750600114610c11575b505050829003601f01601f1916820167ffffffffffffffff81118382101761045057604052565b9092506000526020918260002091836000935b838510610c3a5750505050830101388080610bea565b805488860183015293019284908201610c24565b92935050506020925060ff191682850152151560051b830101388080610bea565b919082519283825260005b848110610c9b575050826000602080949584010152601f8019910116010190565b602081830181015184830182015201610c7a565b9693909260e09699989592610ce0948952602089015260408801526060870152610100806080880152860190610c6f565b9560a085015260c08401521515910152565b9181601f840112156101ad5782359167ffffffffffffffff83116101ad57602083818601950101116101ad57565b60409060031901126101ad576004359060243590565b6000546001600160a01b03163303610d4a57565b606460405162461bcd60e51b815260206004820152602060248201527f4f776e61626c653a2063616c6c6572206973206e6f7420746865206f776e65726044820152fd5b15610d9557565b60405162461bcd60e51b815260206004820152601960248201527f4e6f7420617574686f72697a656420617320747261696e6572000000000000006044820152606490fd5b6000198114610a705760010190565b15610df057565b60405162461bcd60e51b815260206004820152601060248201526f125b9d985b1a59081c9bdd5b9908125160821b6044820152606490fd5b15610e2f57565b60405162461bcd60e51b815260206004820152601760248201527f526f756e6420616c726561647920636f6d706c657465640000000000000000006044820152606490fd5b908060209392818452848401376000828201840152601f01601f191601019056fea2646970667358221220bcb6280283abb399778a0f13800e575b9b1ea9989b7f817de27f5bb967ecbdf264736f6c63430008130033",
  "immutableReferences": {},
  "source": "// SPDX-License-Identifier: MIT\r\npragma solidity ^0.8.19;\r\n\r\nimport \"@openzeppelin/contracts/access/Ownable.sol\";\r\nimport \"@openzeppelin/contracts/security/ReentrancyGuard.sol\";\r\n\r\n/**\r\n * @title FederatedLearning\r\n * @dev Manages federated learning training rounds on BNB Chain\r\n * This contract tracks model training, client participation, and performance metrics\r\n */\r\ncontract FederatedLearning is Ownable, ReentrancyGuard {\r\n    \r\n    struct TrainingRound {\r\n        uint256 roundId;\r\n        uint256 startTimestamp;\r\n        uint256 endTimestamp;\r\n        uint256 numberOfParticipants;\r\n        string globalModelHash; // BNB Greenfield hash of the model\r\n        uint256 accuracy; // scaled by 10000 (4 decimal places)\r\n        uint256 loss; // scaled by 10000 (4 decimal places)\r\n        bool isCompleted;\r\n    }\r\n    \r\n    struct ClientParticipation {\r\n        uint256 clientId;\r\n        uint256 roundId;\r\n        string updateHash; // Client model update hash on BNB Greenfield\r\n        uint256 accuracy; // scaled by 10000 (4 decimal places)\r\n        uint256 loss; // scaled by 10000 (4 decimal places)\r\n        uint256 samples; // Number of data samples used\r\n        uint256 timestamp;\r\n    }\r\n    \r\n    // Storage\r\n    mapping(uint256 => TrainingRound) public trainingRounds;\r\n    mapping(uint256 => mapping(uint256 => ClientParticipation)) public clientParticipations; // roundId => clientId => participation\r\n    mapping(uint256 => uint256) public clientParticipationCount; // roundId => count\r\n    \r\n    uint256 public roundCount;\r\n    uint256 public totalParticipations;\r\n    \r\n    // Events\r\n    event TrainingRoundStarted(\r\n        uint256 indexed roundId,\r\n        uint256 participants,\r\n        uint256 timestamp\r\n    );\r\n    \r\n    event ClientParticipated(\r\n        uint256 indexed roundId,\r\n        uint256 indexed clientId,\r\n        string updateHash,\r\n        uint256 accuracy,\r\n        uint256 loss,\r\n        uint256 samples,\r\n        uint256 timestamp\r\n    );\r\n    \r\n    event TrainingRoundCompleted(\r\n        uint256 indexed roundId,\r\n        string globalModelHash,\r\n        uint256 accuracy,\r\n        uint256 loss,\r\n        uint256 timestamp\r\n    );\r\n    \r\n    // Modifiers\r\n    modifier validRound(uint256 roundId) {\r\n        require(roundId > 0 && roundId <= roundCount, \"Invalid round ID\");\r\n        _;\r\n    }\r\n    \r\n    modifier onlyTrainer() {\r\n        // In production, implement proper role-based access control\r\n        require(msg.sender == owner(), \"Not authorized as trainer\");\r\n        _;\r\n    }\r\n    \r\n    /**\r\n     * @dev Record the start of a new training round\r\n     */\r\n    function recordTrainingRoundStart(uint256 participants) external onlyTrainer {\r\n        roundCount++;\r\n        uint256 roundId = roundCount;\r\n        \r\n        TrainingRound storage round = trainingRounds[roundId];\r\n        round.roundId = roundId;\r\n        round.startTimestamp = block.timestamp;\r\n        round.numberOfParticipants = participants;\r\n        round.isCompleted = false;\r\n        \r\n        emit TrainingRoundStarted(roundId, participants, block.timestamp);\r\n    }\r\n    \r\n    /**\r\n     * @dev Record a client's participation in a training round\r\n     */\r\n    function recordClientParticipation(\r\n        uint256 clientId,\r\n        uint256 roundId,\r\n        string calldata updateHash,\r\n        uint256 accuracy,\r\n        uint256 loss,\r\n        uint256 samples\r\n    ) external onlyTrainer validRound(roundId) {\r\n        require(bytes(updateHash).length > 0, \"Invalid update hash\");\r\n        require(samples > 0, \"Must have at least one sample\");\r\n        require(!trainingRounds[roundId].isCompleted, \"Round already completed\");\r\n        \r\n        ClientParticipation storage participation = clientParticipations[roundId][clientId];\r\n        participation.clientId = clientId;\r\n        participation.roundId = roundId;\r\n        participation.updateHash = updateHash;\r\n        participation.accuracy = accuracy;\r\n        participation.loss = loss;\r\n        participation.samples = samples;\r\n        participation.timestamp = block.timestamp;\r\n        \r\n        clientParticipationCount[roundId]++;\r\n        totalParticipations++;\r\n        \r\n        emit ClientParticipated(\r\n            roundId,\r\n            clientId,\r\n            updateHash,\r\n            accuracy,\r\n            loss,\r\n            samples,\r\n            block.timestamp\r\n        );\r\n    }\r\n    \r\n    /**\r\n     * @dev Record the completion of a training round with the global model\r\n     */\r\n    function recordTrainingRoundCompletion(\r\n        uint256 roundId,\r\n        string calldata globalModelHash,\r\n        uint256 accuracy,\r\n        uint256 loss\r\n    ) external onlyTrainer validRound(roundId) {\r\n        TrainingRound storage round = trainingRounds[roundId];\r\n        require(!round.isCompleted, \"Round already completed\");\r\n        \r\n        round.globalModelHash = globalModelHash;\r\n        round.accuracy = accuracy;\r\n        round.loss = loss;\r\n        round.endTimestamp = block.timestamp;\r\n        round.isCompleted = true;\r\n        \r\n        emit TrainingRoundCompleted(\r\n            roundId,\r\n            globalModelHash,\r\n            accuracy,\r\n            loss,\r\n            block.timestamp\r\n        );\r\n    }\r\n    \r\n    /**\r\n     * @dev Get training round details\r\n     */\r\n    function getTrainingRound(uint256 roundId) external view validRound(roundId) returns (\r\n        uint256 startTimestamp,\r\n        uint256 endTimestamp,\r\n        uint256 numberOfParticipants,\r\n        uint256 actualParticipants,\r\n        string memory globalModelHash,\r\n        uint256 accuracy,\r\n        uint256 loss,\r\n        bool isCompleted\r\n    ) {\r\n        TrainingRound storage round = trainingRounds[roundId];\r\n        return (\r\n            round.startTimestamp,\r\n            round.endTimestamp,\r\n            round.numberOfParticipants,\r\n            clientParticipationCount[roundId],\r\n            round.globalModelHash,\r\n            round.accuracy,\r\n            round.loss,\r\n            round.isCompleted\r\n        );\r\n    }\r\n    \r\n    /**\r\n     * @dev Get client participation details\r\n     */\r\n    function getClientParticipation(uint256 roundId, uint256 clientId) external view validRound(roundId) returns (\r\n        string memory updateHash,\r\n        uint256 accuracy,\r\n        uint256 loss,\r\n        uint256 samples,\r\n        uint256 timestamp\r\n    ) {\r\n        ClientParticipation storage participation = clientParticipations[roundId][clientId];\r\n        require(participation.timestamp > 0, \"Client did not participate in this round\");\r\n        \r\n        return (\r\n            participation.updateHash,\r\n            participation.accuracy,\r\n            participation.loss,\r\n            participation.samples,\r\n            participation.timestamp\r\n        );\r\n    }\r\n    \r\n    /**\r\n     * @dev Get federated learning statistics\r\n     */\r\n    function getStatistics() external view returns (\r\n        uint256 totalRounds,\r\n        uint256 completedRounds,\r\n        uint256 activeRounds,\r\n        uint256 _totalParticipations,\r\n        uint256 averageParticipantsPerRound\r\n    ) {\r\n        uint256 completed = 0;\r\n        \r\n        for (uint256 i = 1; i <= roundCount; i++) {\r\n            if (trainingRounds[i].isCompleted) {\r\n                completed++;\r\n            }\r\n        }\r\n        \r\n        uint256 avgParticipants = roundCount > 0 ? totalParticipations / roundCount : 0;\r\n        \r\n        return (\r\n            roundCount,\r\n            completed,\r\n            roundCount - completed,\r\n            totalParticipations,\r\n            avgParticipants\r\n        );\r\n    }\r\n}",
  "sourcePath": "E:\\projects\\DeCliNet\\contracts\\contracts\\FederatedLearning.sol",
  "compiler": {
    "name": "solc",
    "version": "0.8.19+commit.7dd6d404.Emscripten.clang"
  },
  "schemaVersion": "3.4.16",
  "updatedAt": "2025-08-22T12:35:10.182Z",
  "networkType": "ethereum",
  "devdoc": {
    "details": "Manages federated learning training rounds on BNB Chain This contract tracks model training, client participation, and performance metrics",
    "kind": "dev",
    "methods": {
      "getClientParticipation(uint256,uint256)": {
        "details": "Get client participation details"
      },
      "getStatistics()": {
        "details": "Get federated learning statistics"
      },
      "getTrainingRound(uint256)": {
        "details": "Get training round details"
      },
      "owner()": {
        "details": "Returns the address of the current owner."
      },
      "recordClientParticipation(uint256,uint256,string,uint256,uint256,uint256)": {
        "details": "Record a client's participation in a training round"
      },
      "recordTrainingRoundCompletion(uint256,string,uint256,uint256)": {
        "details": "Record the completion of a training round with the global model"
      },
      "recordTrainingRoundStart(uint256)": {
        "details": "Record the start of a new training round"
      },
      "renounceOwnership()": {
        "details": "Leaves the contract without owner. It will not be possible to call `onlyOwner` functions. Can only be called by the current owner. NOTE: Renouncing ownership will leave the contract without an owner, thereby disabling any functionality that is only available to the owner."
      },
      "transferOwnership(address)": {
        "details": "Transfers ownership of the contract to a new account (`newOwner`). Can only be called by the current owner."
      }
    },
    "title": "FederatedLearning",
    "version": 1
  },
  "userdoc": {
    "kind": "user",
    "methods": {},
    "version": 1
  }
}