{
  "contractName": "ModelRegistry",
  "abi": [
    {
      "inputs": [
        {
          "internalType": "address",
          "name": "_dcnetToken",
          "type": "address"
        }
      ],
      "stateMutability": "nonpayable",
      "type": "constructor"
    },
    {
      "anonymous": false,
      "inputs": [
        {
          "indexed": true,
          "internalType": "uint256",
          "name": "modelId",
          "type": "uint256"
        },
        {
          "indexed": true,
          "internalType": "address",
          "name": "creator",
          "type": "address"
        },
        {
          "indexed": false,
          "internalType": "string",
          "name": "name",
          "type": "string"
        },
        {
          "indexed": false,
          "internalType": "string",
          "name": "modelType",
          "type": "string"
        },
        {
          "indexed": false,
          "internalType": "string",
          "name": "greenfieldHash",
          "type": "string"
        },
        {
          "indexed": false,
          "internalType": "uint256",
          "name": "pricePerUse",
          "type": "uint256"
        },
        {
          "indexed": false,
          "internalType": "uint256",
          "name": "timestamp",
          "type": "uint256"
        }
      ],
      "name": "ModelRegistered",
      "type": "event"
    },
    {
      "anonymous": false,
      "inputs": [
        {
          "indexed": true,
          "internalType": "uint256",
          "name": "modelId",
          "type": "uint256"
        },
        {
          "indexed": false,
          "internalType": "string",
          "name": "name",
          "type": "string"
        },
        {
          "indexed": false,
          "internalType": "string",
          "name": "description",
          "type": "string"
        },
        {
          "indexed": false,
          "internalType": "uint256",
          "name": "pricePerUse",
          "type": "uint256"
        },
        {
          "indexed": false,
          "internalType": "bool",
          "name": "isActive",
          "type": "bool"
        },
        {
          "indexed": false,
          "internalType": "uint256",
          "name": "timestamp",
          "type": "uint256"
        }
      ],
      "name": "ModelUpdated",
      "type": "event"
    },
    {
      "anonymous": false,
      "inputs": [
        {
          "indexed": true,
          "internalType": "uint256",
          "name": "modelId",
          "type": "uint256"
        },
        {
          "indexed": true,
          "internalType": "uint256",
          "name": "usageId",
          "type": "uint256"
        },
        {
          "indexed": true,
          "internalType": "address",
          "name": "user",
          "type": "address"
        },
        {
          "indexed": false,
          "internalType": "uint256",
          "name": "fee",
          "type": "uint256"
        },
        {
          "indexed": false,
          "internalType": "bool",
          "name": "success",
          "type": "bool"
        },
        {
          "indexed": false,
          "internalType": "uint256",
          "name": "timestamp",
          "type": "uint256"
        }
      ],
      "name": "ModelUsed",
      "type": "event"
    },
    {
      "anonymous": false,
      "inputs": [
        {
          "indexed": true,
          "internalType": "address",
          "name": "previousOwner",
          "type": "address"
        },
        {
          "indexed": true,
          "internalType": "address",
          "name": "newOwner",
          "type": "address"
        }
      ],
      "name": "OwnershipTransferred",
      "type": "event"
    },
    {
      "inputs": [
        {
          "internalType": "address",
          "name": "",
          "type": "address"
        },
        {
          "internalType": "uint256",
          "name": "",
          "type": "uint256"
        }
      ],
      "name": "creatorModels",
      "outputs": [
        {
          "internalType": "uint256",
          "name": "",
          "type": "uint256"
        }
      ],
      "stateMutability": "view",
      "type": "function",
      "constant": true
    },
    {
      "inputs": [],
      "name": "dcnetToken",
      "outputs": [
        {
          "internalType": "contract IERC20",
          "name": "",
          "type": "address"
        }
      ],
      "stateMutability": "view",
      "type": "function",
      "constant": true
    },
    {
      "inputs": [
        {
          "internalType": "uint256",
          "name": "",
          "type": "uint256"
        },
        {
          "internalType": "uint256",
          "name": "",
          "type": "uint256"
        }
      ],
      "name": "modelUsages",
      "outputs": [
        {
          "internalType": "uint256",
          "name": "usageId",
          "type": "uint256"
        },
        {
          "internalType": "uint256",
          "name": "modelId",
          "type": "uint256"
        },
        {
          "internalType": "address",
          "name": "user",
          "type": "address"
        },
        {
          "internalType": "uint256",
          "name": "timestamp",
          "type": "uint256"
        },
        {
          "internalType": "uint256",
          "name": "fee",
          "type": "uint256"
        },
        {
          "internalType": "bool",
          "name": "success",
          "type": "bool"
        }
      ],
      "stateMutability": "view",
      "type": "function",
      "constant": true
    },
    {
      "inputs": [
        {
          "internalType": "uint256",
          "name": "",
          "type": "uint256"
        }
      ],
      "name": "models",
      "outputs": [
        {
          "internalType": "uint256",
          "name": "id",
          "type": "uint256"
        },
        {
          "internalType": "address",
          "name": "creator",
          "type": "address"
        },
        {
          "internalType": "string",
          "name": "name",
          "type": "string"
        },
        {
          "internalType": "string",
          "name": "description",
          "type": "string"
        },
        {
          "internalType": "string",
          "name": "modelType",
          "type": "string"
        },
        {
          "internalType": "string",
          "name": "greenfieldHash",
          "type": "string"
        },
        {
          "internalType": "uint256",
          "name": "pricePerUse",
          "type": "uint256"
        },
        {
          "internalType": "bool",
          "name": "isFederatedModel",
          "type": "bool"
        },
        {
          "internalType": "bool",
          "name": "isActive",
          "type": "bool"
        },
        {
          "internalType": "uint256",
          "name": "usageCount",
          "type": "uint256"
        },
        {
          "internalType": "uint256",
          "name": "totalRevenue",
          "type": "uint256"
        },
        {
          "internalType": "uint256",
          "name": "createdAt",
          "type": "uint256"
        }
      ],
      "stateMutability": "view",
      "type": "function",
      "constant": true
    },
    {
      "inputs": [],
      "name": "owner",
      "outputs": [
        {
          "internalType": "address",
          "name": "",
          "type": "address"
        }
      ],
      "stateMutability": "view",
      "type": "function",
      "constant": true
    },
    {
      "inputs": [],
      "name": "platformFeePercentage",
      "outputs": [
        {
          "internalType": "uint256",
          "name": "",
          "type": "uint256"
        }
      ],
      "stateMutability": "view",
      "type": "function",
      "constant": true
    },
    {
      "inputs": [],
      "name": "renounceOwnership",
      "outputs": [],
      "stateMutability": "nonpayable",
      "type": "function"
    },
    {
      "inputs": [
        {
          "internalType": "address",
          "name": "newOwner",
          "type": "address"
        }
      ],
      "name": "transferOwnership",
      "outputs": [],
      "stateMutability": "nonpayable",
      "type": "function"
    },
    {
      "inputs": [
        {
          "internalType": "string",
          "name": "name",
          "type": "string"
        },
        {
          "internalType": "string",
          "name": "description",
          "type": "string"
        },
        {
          "internalType": "string",
          "name": "modelType",
          "type": "string"
        },
        {
          "internalType": "string",
          "name": "greenfieldHash",
          "type": "string"
        },
        {
          "internalType": "uint256",
          "name": "pricePerUse",
          "type": "uint256"
        },
        {
          "internalType": "bool",
          "name": "isFederatedModel",
          "type": "bool"
        },
        {
          "internalType": "string[]",
          "name": "tags",
          "type": "string[]"
        }
      ],
      "name": "registerModel",
      "outputs": [
        {
          "internalType": "uint256",
          "name": "",
          "type": "uint256"
        }
      ],
      "stateMutability": "nonpayable",
      "type": "function"
    },
    {
      "inputs": [
        {
          "internalType": "uint256",
          "name": "modelId",
          "type": "uint256"
        }
      ],
      "name": "useModel",
      "outputs": [
        {
          "internalType": "uint256",
          "name": "",
          "type": "uint256"
        }
      ],
      "stateMutability": "nonpayable",
      "type": "function"
    },
    {
      "inputs": [
        {
          "internalType": "uint256",
          "name": "modelId",
          "type": "uint256"
        },
        {
          "internalType": "string",
          "name": "name",
          "type": "string"
        },
        {
          "internalType": "string",
          "name": "description",
          "type": "string"
        },
        {
          "internalType": "uint256",
          "name": "pricePerUse",
          "type": "uint256"
        },
        {
          "internalType": "bool",
          "name": "isActive",
          "type": "bool"
        }
      ],
      "name": "updateModel",
      "outputs": [],
      "stateMutability": "nonpayable",
      "type": "function"
    },
    {
      "inputs": [
        {
          "internalType": "uint256",
          "name": "modelId",
          "type": "uint256"
        }
      ],
      "name": "getModel",
      "outputs": [
        {
          "internalType": "address",
          "name": "creator",
          "type": "address"
        },
        {
          "internalType": "string",
          "name": "name",
          "type": "string"
        },
        {
          "internalType": "string",
          "name": "description",
          "type": "string"
        },
        {
          "internalType": "string",
          "name": "modelType",
          "type": "string"
        },
        {
          "internalType": "string",
          "name": "greenfieldHash",
          "type": "string"
        },
        {
          "internalType": "uint256",
          "name": "pricePerUse",
          "type": "uint256"
        },
        {
          "internalType": "bool",
          "name": "isFederatedModel",
          "type": "bool"
        },
        {
          "internalType": "bool",
          "name": "isActive",
          "type": "bool"
        },
        {
          "internalType": "uint256",
          "name": "usageCount",
          "type": "uint256"
        },
        {
          "internalType": "uint256",
          "name": "totalRevenue",
          "type": "uint256"
        },
        {
          "internalType": "string[]",
          "name": "tags",
          "type": "string[]"
        },
        {
          "internalType": "uint256",
          "name": "createdAt",
          "type": "uint256"
        }
      ],
      "stateMutability": "view",
      "type": "function",
      "constant": true
    },
    {
      "inputs": [
        {
          "internalType": "address",
          "name": "creator",
          "type": "address"
        }
      ],
      "name": "getCreatorModels",
      "outputs": [
        {
          "internalType": "uint256[]",
          "name": "",
          "type": "uint256[]"
        }
      ],
      "stateMutability": "view",
      "type": "function",
      "constant": true
    },
    {
      "inputs": [
        {
          "internalType": "uint256",
          "name": "_platformFeePercentage",
          "type": "uint256"
        }
      ],
      "name": "updatePlatformFeePercentage",
      "outputs": [],
      "stateMutability": "nonpayable",
      "type": "function"
    },
    {
      "inputs": [],
      "name": "withdrawPlatformFees",
      "outputs": [],
      "stateMutability": "nonpayable",
      "type": "function"
    },
    {
      "inputs": [],
      "name": "getRegistryStatistics",
      "outputs": [
        {
          "internalType": "uint256",
          "name": "totalModels",
          "type": "uint256"
        },
        {
          "internalType": "uint256",
          "name": "activeModels",
          "type": "uint256"
        },
        {
          "internalType": "uint256",
          "name": "totalModelUsages",
          "type": "uint256"
        },
        {
          "internalType": "uint256",
          "name": "totalRevenue",
          "type": "uint256"
        }
      ],
      "stateMutability": "view",
      "type": "function",
      "constant": true
    }
  ],
  "bytecode": "0x6080346100b057601f611dae38819003918201601f19168301916001600160401b038311848410176100b5578084926020946040528339810103126100b057516001600160a01b0390818116908190036100b05760005460018060a01b0319903382821617600055604051933391167f8be0079c531659141344cd1fd0a4f28419497f9722a3daafe3b4186f6b6457e0600080a360018055600a6008556002541617600255611ce290816100cc8239f35b600080fd5b634e487b7160e01b600052604160045260246000fdfe6080604052600436101561001257600080fd5b60003560e01c80632eae66291461165157806333c809641461129d57806350adaf52146112165780636341b94c1461116f57806364f12842146110bb5780636a030ca914610faf5780636d36169414610dd1578063715018a614610d7857806382301c6914610d4f5780638da5cb5b14610d26578063b6847aa9146103b0578063c271f1bc14610358578063cdd78cfc1461033a578063d0b7830b146101fb578063e4830153146101955763f2fde38b146100cc57600080fd5b34610190576020366003190112610190576100e5611a24565b6100ed611b93565b6001600160a01b0390811690811561013c57600054826001600160601b0360a01b821617600055167f8be0079c531659141344cd1fd0a4f28419497f9722a3daafe3b4186f6b6457e0600080a3005b60405162461bcd60e51b815260206004820152602660248201527f4f776e61626c653a206e6577206f776e657220697320746865207a65726f206160448201526564647265737360d01b6064820152608490fd5b600080fd5b34610190576020366003190112610190576004356101b1611b93565b601e81116101be57600855005b60405162461bcd60e51b81526020600482015260156024820152740a0d8c2e8ccdee4da40cccaca40e8dede40d0d2ced605b1b6044820152606490fd5b3461019057600036600319011261019057610214611b93565b6002546040516370a0823160e01b81523060048201526020916001600160a01b03908116908383602481855afa9283156102c45760009361030b575b5082156102d0576000805460405163a9059cbb60e01b815292166001600160a01b03166004830152602482019390935291839183918290816044810103925af180156102c45761029c57005b816102bb92903d106102bd575b6102b38183611a74565b810190611c62565b005b503d6102a9565b6040513d6000823e3d90fd5b60405162461bcd60e51b81526004810185905260136024820152724e6f206665657320746f20776974686472617760681b6044820152606490fd5b9092508381813d8311610333575b6103238183611a74565b8101031261019057519184610250565b503d610319565b34610190576000366003190112610190576020600854604051908152f35b3461019057604036600319011261019057610371611a24565b6001600160a01b0316600090815260066020526040902080546024359190821015610190576020916103a291611b7b565b90546040519160031b1c8152f35b346101905760e0366003190112610190576004356001600160401b038111610190576103e09036906004016119c5565b6024356001600160401b038111610190576103ff9036906004016119c5565b91906044356001600160401b038111610190576104209036906004016119c5565b9190946064356001600160401b038111610190576104429036906004016119c5565b9260a435151560a43503610190576001600160401b0360c435116101905736602360c435011215610190576001600160401b0360c43560040135116101905736602460c4356004013560051b60c435010111610190578515610cea578315610ca55760843515610c6057600160035401968760035587600052600560205260406000209188835560018301336001600160601b0360a01b8254161790556001600160401b03881161076f576104fa6002840154611a3a565b601f8111610c2b575b50876000601f8211600114610bbd57600091610bb2575b508860011b906000198a60031b1c19161760028401555b6001600160401b03821161076f57819061054e6003850154611a3a565b601f8111610b7d575b50600090601f8311600114610b0c57600092610b01575b50508160011b916000199060031b1c19161760038201555b6001600160401b03851161076f576105a16004820154611a3a565b601f8111610acc575b50846000601f8211600114610a5c57600091610a51575b508560011b906000198760031b1c19161760048201555b6001600160401b03841161076f576105f36005820154611a3a565b601f8111610a1c575b50836000601f82116001146109ae576000916109a3575b508460011b906000198660031b1c19161760058201555b608435600682015560078101805461ffff191660a435151560ff16176101001790556000600882018190556009820155600160401b600460c43501351161076f57600a81018054600460c435013591829055908111610925575b50602460c43501600a82016000526020600020906000905b60c43560040135821061078557505050600b42910155336000526006602052604060002092835493600160401b85101561076f57602098889661073761075296610710896107449660017fff023310fe95ac85f6ef35f48af1ce559380a0964fedf28819577570bfdf7c919c018155611b7b565b81549060031b908c821b91600019901b19161790556040519a60a08c5260a08c0191611c02565b918983038c8b0152611c02565b918683036040880152611c02565b9260843560608201524260808201528033940390a3604051908152f35b634e487b7160e01b600052604160045260246000fd5b803560c435360360421901811215610190576001600160401b0360248260c435010135116101905760c435810160248101353603604490910113610190576107cd8454611a3a565b601f81116108e0575b506000601f60248360c4350101351160011461084357600192839260209260009060248360c435010135610831575b5060001960c43590920160240135600381901b9290921c191690841b1786555b0193019101909161069c565b604491508260c4350101013538610805565b8460005260206000209060005b60c435840160240135601f191681106108c157506001938493602093919285926024929160c4358301840135601f19811610610899575b505060c435010135811b018655610825565b604460001960f8868660c43501013560031b161c19918460c435010101351690553880610887565b90916020600181926044868860c4350101013581550193019101610850565b60008581526020908190206109159260c435850160240135601f810160051c8301931161091b575b601f0160051c0190611beb565b8c6107d6565b9091508190610908565b600a820160005260206000209060c4356004013582015b818301811061094c575050610684565b8061095960019254611a3a565b80610966575b500161093c565b601f8111831461097c5750600081555b8c61095f565b60009082825261099a601f60208420920160051c8201858301611beb565b81835555610976565b905082013589610613565b90506005820160005260206000209060005b601f1987168110610a04575085601f198116106109ea575b5050600184811b01600582015561062a565b830135600019600387901b60f8161c1916905588806109d8565b909160206001819285880135815501930191016109c0565b610a4b90600583016000526020600020601f870160051c8101916020881061091b57601f0160051c0190611beb565b886105fc565b9050880135896105c1565b90506004820160005260206000209060005b8a601f1989168210610ab457505086601f19811610610a9a575b5050600185811b0160048201556105d8565b890135600019600388901b60f8161c191690558880610a88565b60018394602093948493013581550193019101610a6e565b610afb90600483016000526020600020601f880160051c8101916020891061091b57601f0160051c0190611beb565b886105aa565b013590508a8061056e565b909250600384016000526020600020906000935b601f1984168510610b65576001945083601f19811610610b4b575b505050811b016003820155610586565b0135600019600384901b60f8161c191690558a8080610b3b565b81810135835560209485019460019093019201610b20565b610bac90600386016000526020600020601f850160051c8101916020861061091b57601f0160051c0190611beb565b8b610557565b90508501358b61051a565b90506002840160005260206000209060005b601f198b168110610c13575089601f19811610610bf9575b5050600188811b016002840155610531565b86013560001960038b901b60f8161c191690558a80610be7565b9091602060018192858b013581550193019101610bcf565b610c5a90600285016000526020600020601f8b0160051c81019160208c1061091b57601f0160051c0190611beb565b8a610503565b60405162461bcd60e51b815260206004820152601c60248201527f5072696365206d7573742062652067726561746572207468616e2030000000006044820152606490fd5b60405162461bcd60e51b815260206004820152601f60248201527f477265656e6669656c6420686173682063616e6e6f7420626520656d707479006044820152606490fd5b60405162461bcd60e51b81526020600482015260146024820152734e616d652063616e6e6f7420626520656d70747960601b6044820152606490fd5b34610190576000366003190112610190576000546040516001600160a01b039091168152602090f35b34610190576000366003190112610190576002546040516001600160a01b039091168152602090f35b3461019057600036600319011261019057610d91611b93565b600080546001600160a01b0319811682556001600160a01b03167f8be0079c531659141344cd1fd0a4f28419497f9722a3daafe3b4186f6b6457e08280a3005b34610190576020806003193601126101905760043580151580610fa3575b610df890611c23565b60005260058152604060002060018060a01b036001820154169060068101546007820154936008830154946009840154600b85015496610e3a60028701611a95565b92610e4760038801611a95565b610e5360048901611a95565b610e5f60058a01611a95565b91600a8a0154966001600160401b03881161076f5760405197610e878a8260051b018a611a74565b808952898901600a819d016000528a6000208b6000925b848410610f855750505050506040519b8c52888c61018091829101528c01610ec591611b3b565b8b810360408d0152610ed691611b3b565b8a810360608c0152610ee791611b3b565b89810360808b0152610ef891611b3b565b9560a089015260ff8116151560c089015260081c60ff16151560e0880152610100870152610120860152848303610140860152519081835280830192818360051b82010194936000915b848310610f57578780888b6101608301520390f35b9091929394958480610f75600193601f198682030187528a51611b3b565b9801930193019194939290610f42565b6001918291610f9385611a95565b8152019201920191908c90610e9e565b50600354811115610def565b34610190576020366003190112610190576004356000908152600560205260409020805460018201546001600160a01b031691610fee60028201611a95565b610ffa60038301611a95565b9161100760048201611a95565b9261101460058301611a95565b93600683015494600784015491600885015493600986015495600b0154966040519a8b9a8b5260208b01526101808060408c01528a0161105391611b3b565b89810360608b015261106491611b3b565b88810360808a015261107591611b3b565b87810360a089015261108691611b3b565b9460c087015260ff8116151560e087015260081c60ff1615156101008601526101208501526101408401526101608301520390f35b3461019057602080600319360112610190576001600160a01b036110dd611a24565b1660005260068152604060002060405190818382549182815201908192600052846000209060005b8682821061115b57868661111b82880383611a74565b604051928392818401908285525180915260408401929160005b82811061114457505050500390f35b835185528695509381019392810192600101611135565b835485529093019260019283019201611105565b34610190576000366003190112610190576003546000908160015b828111156111b1575060809260045490604051938452602084015260408301526060820152f35b90816000526005602081815260ff60076040600020015460081c166111f9575b916111ee916111f493856000525260096040600020015490611c9f565b91611c7a565b61118a565b94916111ee9161120b6111f494611c7a565b9691935091506111d1565b34610190576040366003190112610190576024356004356000526007602052604060002080548210156101905760c09161124f916119f2565b5080549060018101549060018060a01b0360028201541660038201549060ff6005600485015494015416936040519586526020860152604085015260608401526080830152151560a0820152f35b34610190576020806003193601126101905760043580151580611645575b6112c490611c23565b600160028154146116005760028155816000526005835260406000209160ff600784015460081c16156115c55760068301549060018060a01b03938460025416906040516323b872dd60e01b81523360048201528781606481600060249730898401528a60448401525af19081156102c4576000916115a8575b501561156c578460045401958660045560405160c081018181106001600160401b03821117611557576040528781528880820186815260408301338152606084019042825260808501928a8452600760a08701958d87528b600052526040600020805490600160401b82101561154257906113bd918e820181556119f2565b96909661152d57916114139695939160059593518755518d87015587600287019151166001600160601b0360a01b82541617905551600385015551600484015551151591019060ff801983541691151516179055565b600882016114218154611c7a565b905560098201611432868254611c9f565b9055600854808602908682041486151715611518576064900485039285841161150457506002549186015460405163a9059cbb60e01b81529082166001600160a01b0316600482015260248101939093529192918791849116816000816044810103925af19182156102c45785926114e7575b5060405192835283868401524260408401527f5b993c8b3c82d4cd739dea6d8f158fe8e5ada94b678eb55ea50d8902f4e7eaa860603394a48055604051908152f35b6114fd90873d89116102bd576102b38183611a74565b50866114a5565b634e487b7160e01b60009081526011600452fd5b83634e487b7160e01b60005260116004526000fd5b89634e487b7160e01b60005260006004526000fd5b8a634e487b7160e01b60005260416004526000fd5b84634e487b7160e01b60005260416004526000fd5b60405162461bcd60e51b81526004810188905260158184015274151bdad95b881d1c985b9cd9995c8819985a5b1959605a1b6044820152606490fd5b6115bf9150883d8a116102bd576102b38183611a74565b8861133e565b60405162461bcd60e51b81526004810185905260136024820152724d6f64656c206973206e6f742061637469766560681b6044820152606490fd5b60405162461bcd60e51b815260048101849052601f60248201527f5265656e7472616e637947756172643a207265656e7472616e742063616c6c006044820152606490fd5b506003548111156112bb565b346101905760a0366003190112610190576001600160401b03600435602435828111610190576116859036906004016119c5565b6044358481116101905761169d9036906004016119c5565b6084959195359081151580920361019057851515806119b9575b6116c090611c23565b85600052602096600588526040600020936001808060a01b03818701541633036119745786611886575b6003860191841161076f576116ff8254611a3a565b601f8111611856575b506000601f85116001146117cc579184807ff8e13f683f757178d202c4bb18dcb148bcc4232153cae219ceb3835d4555883c9b9c95936117a097956000936117c1575b501b906000198560031b1c19161790555b600760643596876117b6575b01805461ff008760081b169061ff00191617905561179360405198899860a08a5260a08a0191611c02565b9287840390880152611c02565b91604084015260608301524260808301520390a2005b876006820155611768565b85013592508e61174b565b601f19851690836000528b6000209160005b8181106118415750917ff8e13f683f757178d202c4bb18dcb148bcc4232153cae219ceb3835d4555883c9b9c959391876117a098969410611827575b505083811b01905561175c565b840135600019600387901b60f8161c191690558c8061181a565b86830135845592840192918d01918d016117de565b61188090836000528b600020601f870160051c8101918d881061091b57601f0160051c0190611beb565b8a611708565b81871161076f576002860161189b8154611a3a565b8b601f8211611943575b5050876000601f82116001146118df576000916118d4575b5060001960038a901b1c191688831b1790556116ea565b90508901358c6118bd565b60008381528d812092505b8d858d601f198e168410611930575050505089601f19811610611916575b50508188811b0190556116ea565b8a013560001960038b901b60f8161c191690558b80611908565b84013585559093019291820191016118ea565b61196d91836000528160002090601f8c0160051c8201928c1061091b57601f0160051c0190611beb565b8b8b6118a5565b60405162461bcd60e51b8152600481018b9052601d60248201527f4f6e6c792063726561746f722063616e20757064617465206d6f64656c0000006044820152606490fd5b506003548611156116b7565b9181601f84011215610190578235916001600160401b038311610190576020838186019501011161019057565b8054821015611a0e576000526006602060002091020190600090565b634e487b7160e01b600052603260045260246000fd5b600435906001600160a01b038216820361019057565b90600182811c92168015611a6a575b6020831014611a5457565b634e487b7160e01b600052602260045260246000fd5b91607f1691611a49565b90601f801991011681019081106001600160401b0382111761076f57604052565b9060405191826000825492611aa984611a3a565b908184526001948581169081600014611b185750600114611ad5575b5050611ad392500383611a74565b565b9093915060005260209081600020936000915b818310611b00575050611ad393508201013880611ac5565b85548884018501529485019487945091830191611ae8565b915050611ad394506020925060ff191682840152151560051b8201013880611ac5565b919082519283825260005b848110611b67575050826000602080949584010152601f8019910116010190565b602081830181015184830182015201611b46565b8054821015611a0e5760005260206000200190600090565b6000546001600160a01b03163303611ba757565b606460405162461bcd60e51b815260206004820152602060248201527f4f776e61626c653a2063616c6c6572206973206e6f7420746865206f776e65726044820152fd5b818110611bf6575050565b60008155600101611beb565b908060209392818452848401376000828201840152601f01601f1916010190565b15611c2a57565b60405162461bcd60e51b815260206004820152601060248201526f125b9d985b1a59081b5bd9195b08125160821b6044820152606490fd5b90816020910312610190575180151581036101905790565b6000198114611c895760010190565b634e487b7160e01b600052601160045260246000fd5b91908201809211611c895756fea2646970667358221220a5dcb1b3d60592ff97909c3209a1d44c01c765c577a5e46fd4e780611ad3358264736f6c63430008130033",
  "immutableReferences": {},
  "source": "// SPDX-License-Identifier: MIT\r\npragma solidity ^0.8.19;\r\n\r\nimport \"@openzeppelin/contracts/access/Ownable.sol\";\r\nimport \"@openzeppelin/contracts/token/ERC20/IERC20.sol\";\r\nimport \"@openzeppelin/contracts/security/ReentrancyGuard.sol\";\r\nimport \"@openzeppelin/contracts/utils/Counters.sol\";\r\n\r\n/**\r\n * @title ModelRegistry\r\n * @dev Registry for AI/ML models with tokenized usage and fee distribution\r\n */\r\ncontract ModelRegistry is Ownable, ReentrancyGuard {\r\n    using Counters for Counters.Counter;\r\n    \r\n    IERC20 public dcnetToken;\r\n    \r\n    struct Model {\r\n        uint256 id;\r\n        address creator;\r\n        string name;\r\n        string description;\r\n        string modelType;\r\n        string greenfieldHash;\r\n        uint256 pricePerUse;\r\n        bool isFederatedModel;\r\n        bool isActive;\r\n        uint256 usageCount;\r\n        uint256 totalRevenue;\r\n        string[] tags;\r\n        uint256 createdAt;\r\n    }\r\n    \r\n    struct ModelUsage {\r\n        uint256 usageId;\r\n        uint256 modelId;\r\n        address user;\r\n        uint256 timestamp;\r\n        uint256 fee;\r\n        bool success;\r\n    }\r\n    \r\n    // Storage\r\n    Counters.Counter private _modelIdCounter;\r\n    Counters.Counter private _usageIdCounter;\r\n    mapping(uint256 => Model) public models;\r\n    mapping(address => uint256[]) public creatorModels;\r\n    mapping(uint256 => ModelUsage[]) public modelUsages;\r\n    \r\n    // Revenue sharing\r\n    uint256 public platformFeePercentage = 10; // 10% platform fee\r\n    \r\n    // Events\r\n    event ModelRegistered(\r\n        uint256 indexed modelId,\r\n        address indexed creator,\r\n        string name,\r\n        string modelType,\r\n        string greenfieldHash,\r\n        uint256 pricePerUse,\r\n        uint256 timestamp\r\n    );\r\n    \r\n    event ModelUsed(\r\n        uint256 indexed modelId,\r\n        uint256 indexed usageId,\r\n        address indexed user,\r\n        uint256 fee,\r\n        bool success,\r\n        uint256 timestamp\r\n    );\r\n    \r\n    event ModelUpdated(\r\n        uint256 indexed modelId,\r\n        string name,\r\n        string description,\r\n        uint256 pricePerUse,\r\n        bool isActive,\r\n        uint256 timestamp\r\n    );\r\n    \r\n    modifier validModelId(uint256 modelId) {\r\n        require(modelId > 0 && modelId <= _modelIdCounter.current(), \"Invalid model ID\");\r\n        _;\r\n    }\r\n    \r\n    constructor(address _dcnetToken) {\r\n        dcnetToken = IERC20(_dcnetToken);\r\n    }\r\n    \r\n    /**\r\n     * @dev Register a new AI/ML model\r\n     */\r\n    function registerModel(\r\n        string calldata name,\r\n        string calldata description,\r\n        string calldata modelType,\r\n        string calldata greenfieldHash,\r\n        uint256 pricePerUse,\r\n        bool isFederatedModel,\r\n        string[] calldata tags\r\n    ) external returns (uint256) {\r\n        require(bytes(name).length > 0, \"Name cannot be empty\");\r\n        require(bytes(greenfieldHash).length > 0, \"Greenfield hash cannot be empty\");\r\n        require(pricePerUse > 0, \"Price must be greater than 0\");\r\n        \r\n        _modelIdCounter.increment();\r\n        uint256 newModelId = _modelIdCounter.current();\r\n        \r\n        Model storage model = models[newModelId];\r\n        model.id = newModelId;\r\n        model.creator = msg.sender;\r\n        model.name = name;\r\n        model.description = description;\r\n        model.modelType = modelType;\r\n        model.greenfieldHash = greenfieldHash;\r\n        model.pricePerUse = pricePerUse;\r\n        model.isFederatedModel = isFederatedModel;\r\n        model.isActive = true;\r\n        model.usageCount = 0;\r\n        model.totalRevenue = 0;\r\n        model.tags = tags;\r\n        model.createdAt = block.timestamp;\r\n        \r\n        creatorModels[msg.sender].push(newModelId);\r\n        \r\n        emit ModelRegistered(\r\n            newModelId,\r\n            msg.sender,\r\n            name,\r\n            modelType,\r\n            greenfieldHash,\r\n            pricePerUse,\r\n            block.timestamp\r\n        );\r\n        \r\n        return newModelId;\r\n    }\r\n    \r\n    /**\r\n     * @dev Use a model and pay the usage fee\r\n     */\r\n    function useModel(uint256 modelId) external validModelId(modelId) nonReentrant returns (uint256) {\r\n        Model storage model = models[modelId];\r\n        require(model.isActive, \"Model is not active\");\r\n        \r\n        uint256 fee = model.pricePerUse;\r\n        \r\n        // Transfer DCNET tokens for model usage\r\n        bool transferSuccess = dcnetToken.transferFrom(msg.sender, address(this), fee);\r\n        require(transferSuccess, \"Token transfer failed\");\r\n        \r\n        // Create usage record\r\n        _usageIdCounter.increment();\r\n        uint256 usageId = _usageIdCounter.current();\r\n        \r\n        ModelUsage memory usage = ModelUsage({\r\n            usageId: usageId,\r\n            modelId: modelId,\r\n            user: msg.sender,\r\n            timestamp: block.timestamp,\r\n            fee: fee,\r\n            success: true\r\n        });\r\n        \r\n        modelUsages[modelId].push(usage);\r\n        \r\n        // Update model statistics\r\n        model.usageCount++;\r\n        model.totalRevenue += fee;\r\n        \r\n        // Distribute revenue\r\n        uint256 platformFee = (fee * platformFeePercentage) / 100;\r\n        uint256 creatorFee = fee - platformFee;\r\n        \r\n        // Transfer creator fee\r\n        dcnetToken.transfer(model.creator, creatorFee);\r\n        \r\n        emit ModelUsed(\r\n            modelId,\r\n            usageId,\r\n            msg.sender,\r\n            fee,\r\n            true,\r\n            block.timestamp\r\n        );\r\n        \r\n        return usageId;\r\n    }\r\n    \r\n    /**\r\n     * @dev Update model details (only model creator)\r\n     */\r\n    function updateModel(\r\n        uint256 modelId,\r\n        string calldata name,\r\n        string calldata description,\r\n        uint256 pricePerUse,\r\n        bool isActive\r\n    ) external validModelId(modelId) {\r\n        Model storage model = models[modelId];\r\n        require(model.creator == msg.sender, \"Only creator can update model\");\r\n        \r\n        if (bytes(name).length > 0) {\r\n            model.name = name;\r\n        }\r\n        \r\n        model.description = description;\r\n        \r\n        if (pricePerUse > 0) {\r\n            model.pricePerUse = pricePerUse;\r\n        }\r\n        \r\n        model.isActive = isActive;\r\n        \r\n        emit ModelUpdated(\r\n            modelId,\r\n            name,\r\n            description,\r\n            pricePerUse,\r\n            isActive,\r\n            block.timestamp\r\n        );\r\n    }\r\n    \r\n    /**\r\n     * @dev Get model details\r\n     */\r\n    function getModel(uint256 modelId) external view validModelId(modelId) returns (\r\n        address creator,\r\n        string memory name,\r\n        string memory description,\r\n        string memory modelType,\r\n        string memory greenfieldHash,\r\n        uint256 pricePerUse,\r\n        bool isFederatedModel,\r\n        bool isActive,\r\n        uint256 usageCount,\r\n        uint256 totalRevenue,\r\n        string[] memory tags,\r\n        uint256 createdAt\r\n    ) {\r\n        Model storage model = models[modelId];\r\n        return (\r\n            model.creator,\r\n            model.name,\r\n            model.description,\r\n            model.modelType,\r\n            model.greenfieldHash,\r\n            model.pricePerUse,\r\n            model.isFederatedModel,\r\n            model.isActive,\r\n            model.usageCount,\r\n            model.totalRevenue,\r\n            model.tags,\r\n            model.createdAt\r\n        );\r\n    }\r\n    \r\n    /**\r\n     * @dev Get creator's models\r\n     */\r\n    function getCreatorModels(address creator) external view returns (uint256[] memory) {\r\n        return creatorModels[creator];\r\n    }\r\n    \r\n    /**\r\n     * @dev Update platform fee percentage (only owner)\r\n     */\r\n    function updatePlatformFeePercentage(uint256 _platformFeePercentage) external onlyOwner {\r\n        require(_platformFeePercentage <= 30, \"Platform fee too high\"); // Max 30%\r\n        platformFeePercentage = _platformFeePercentage;\r\n    }\r\n    \r\n    /**\r\n     * @dev Withdraw platform fees (only owner)\r\n     */\r\n    function withdrawPlatformFees() external onlyOwner {\r\n        uint256 balance = dcnetToken.balanceOf(address(this));\r\n        require(balance > 0, \"No fees to withdraw\");\r\n        \r\n        dcnetToken.transfer(owner(), balance);\r\n    }\r\n    \r\n    /**\r\n     * @dev Get registry statistics\r\n     */\r\n    function getRegistryStatistics() external view returns (\r\n        uint256 totalModels,\r\n        uint256 activeModels,\r\n        uint256 totalModelUsages,\r\n        uint256 totalRevenue\r\n    ) {\r\n        uint256 active = 0;\r\n        uint256 revenue = 0;\r\n        \r\n        for (uint256 i = 1; i <= _modelIdCounter.current(); i++) {\r\n            if (models[i].isActive) {\r\n                active++;\r\n            }\r\n            revenue += models[i].totalRevenue;\r\n        }\r\n        \r\n        return (\r\n            _modelIdCounter.current(),\r\n            active,\r\n            _usageIdCounter.current(),\r\n            revenue\r\n        );\r\n    }\r\n}",
  "sourcePath": "E:\\projects\\DeCliNet\\contracts\\contracts\\ModelRegistry.sol",
  "compiler": {
    "name": "solc",
    "version": "0.8.19+commit.7dd6d404.Emscripten.clang"
  },
  "schemaVersion": "3.4.16",
  "updatedAt": "2025-08-22T12:35:10.189Z",
  "networkType": "ethereum",
  "devdoc": {
    "details": "Registry for AI/ML models with tokenized usage and fee distribution",
    "kind": "dev",
    "methods": {
      "getCreatorModels(address)": {
        "details": "Get creator's models"
      },
      "getModel(uint256)": {
        "details": "Get model details"
      },
      "getRegistryStatistics()": {
        "details": "Get registry statistics"
      },
      "owner()": {
        "details": "Returns the address of the current owner."
      },
      "registerModel(string,string,string,string,uint256,bool,string[])": {
        "details": "Register a new AI/ML model"
      },
      "renounceOwnership()": {
        "details": "Leaves the contract without owner. It will not be possible to call `onlyOwner` functions. Can only be called by the current owner. NOTE: Renouncing ownership will leave the contract without an owner, thereby disabling any functionality that is only available to the owner."
      },
      "transferOwnership(address)": {
        "details": "Transfers ownership of the contract to a new account (`newOwner`). Can only be called by the current owner."
      },
      "updateModel(uint256,string,string,uint256,bool)": {
        "details": "Update model details (only model creator)"
      },
      "updatePlatformFeePercentage(uint256)": {
        "details": "Update platform fee percentage (only owner)"
      },
      "useModel(uint256)": {
        "details": "Use a model and pay the usage fee"
      },
      "withdrawPlatformFees()": {
        "details": "Withdraw platform fees (only owner)"
      }
    },
    "title": "ModelRegistry",
    "version": 1
  },
  "userdoc": {
    "kind": "user",
    "methods": {},
    "version": 1
  }
}