{
  "contractName": "PatientDataRegistry",
  "abi": [
    {
      "inputs": [],
      "stateMutability": "nonpayable",
      "type": "constructor"
    },
    {
      "anonymous": false,
      "inputs": [
        {
          "indexed": true,
          "internalType": "address",
          "name": "patient",
          "type": "address"
        },
        {
          "indexed": false,
          "internalType": "uint256",
          "name": "timestamp",
          "type": "uint256"
        }
      ],
      "name": "ConsentUpdated",
      "type": "event"
    },
    {
      "anonymous": false,
      "inputs": [
        {
          "indexed": true,
          "internalType": "uint256",
          "name": "dataId",
          "type": "uint256"
        },
        {
          "indexed": true,
          "internalType": "address",
          "name": "accessor",
          "type": "address"
        },
        {
          "indexed": false,
          "internalType": "string",
          "name": "purpose",
          "type": "string"
        },
        {
          "indexed": false,
          "internalType": "uint256",
          "name": "timestamp",
          "type": "uint256"
        }
      ],
      "name": "DataAccessed",
      "type": "event"
    },
    {
      "anonymous": false,
      "inputs": [
        {
          "indexed": true,
          "internalType": "uint256",
          "name": "dataId",
          "type": "uint256"
        },
        {
          "indexed": true,
          "internalType": "address",
          "name": "patient",
          "type": "address"
        },
        {
          "indexed": false,
          "internalType": "string",
          "name": "dataHash",
          "type": "string"
        },
        {
          "indexed": false,
          "internalType": "uint256",
          "name": "timestamp",
          "type": "uint256"
        }
      ],
      "name": "DataSubmitted",
      "type": "event"
    },
    {
      "anonymous": false,
      "inputs": [
        {
          "indexed": true,
          "internalType": "address",
          "name": "previousOwner",
          "type": "address"
        },
        {
          "indexed": true,
          "internalType": "address",
          "name": "newOwner",
          "type": "address"
        }
      ],
      "name": "OwnershipTransferred",
      "type": "event"
    },
    {
      "anonymous": false,
      "inputs": [
        {
          "indexed": false,
          "internalType": "address",
          "name": "account",
          "type": "address"
        }
      ],
      "name": "Paused",
      "type": "event"
    },
    {
      "anonymous": false,
      "inputs": [
        {
          "indexed": true,
          "internalType": "address",
          "name": "patient",
          "type": "address"
        },
        {
          "indexed": false,
          "internalType": "uint256",
          "name": "amount",
          "type": "uint256"
        },
        {
          "indexed": false,
          "internalType": "string",
          "name": "reason",
          "type": "string"
        }
      ],
      "name": "RewardDistributed",
      "type": "event"
    },
    {
      "anonymous": false,
      "inputs": [
        {
          "indexed": false,
          "internalType": "address",
          "name": "account",
          "type": "address"
        }
      ],
      "name": "Unpaused",
      "type": "event"
    },
    {
      "inputs": [
        {
          "internalType": "uint256",
          "name": "",
          "type": "uint256"
        }
      ],
      "name": "dataRecords",
      "outputs": [
        {
          "internalType": "address",
          "name": "patientAddress",
          "type": "address"
        },
        {
          "internalType": "string",
          "name": "dataHash",
          "type": "string"
        },
        {
          "internalType": "string",
          "name": "metadataURI",
          "type": "string"
        },
        {
          "internalType": "bytes",
          "name": "consentPermissions",
          "type": "bytes"
        },
        {
          "internalType": "uint256",
          "name": "createdAt",
          "type": "uint256"
        },
        {
          "internalType": "uint256",
          "name": "updatedAt",
          "type": "uint256"
        },
        {
          "internalType": "uint256",
          "name": "accessCount",
          "type": "uint256"
        },
        {
          "internalType": "uint256",
          "name": "rewardEarned",
          "type": "uint256"
        },
        {
          "internalType": "bool",
          "name": "isActive",
          "type": "bool"
        }
      ],
      "stateMutability": "view",
      "type": "function",
      "constant": true
    },
    {
      "inputs": [],
      "name": "owner",
      "outputs": [
        {
          "internalType": "address",
          "name": "",
          "type": "address"
        }
      ],
      "stateMutability": "view",
      "type": "function",
      "constant": true
    },
    {
      "inputs": [
        {
          "internalType": "address",
          "name": "",
          "type": "address"
        }
      ],
      "name": "patientConsent",
      "outputs": [
        {
          "internalType": "bool",
          "name": "allowResearch",
          "type": "bool"
        },
        {
          "internalType": "bool",
          "name": "allowCommercial",
          "type": "bool"
        },
        {
          "internalType": "bool",
          "name": "allowSharing",
          "type": "bool"
        },
        {
          "internalType": "uint256",
          "name": "retentionPeriod",
          "type": "uint256"
        }
      ],
      "stateMutability": "view",
      "type": "function",
      "constant": true
    },
    {
      "inputs": [
        {
          "internalType": "address",
          "name": "",
          "type": "address"
        },
        {
          "internalType": "uint256",
          "name": "",
          "type": "uint256"
        }
      ],
      "name": "patientRecords",
      "outputs": [
        {
          "internalType": "uint256",
          "name": "",
          "type": "uint256"
        }
      ],
      "stateMutability": "view",
      "type": "function",
      "constant": true
    },
    {
      "inputs": [],
      "name": "paused",
      "outputs": [
        {
          "internalType": "bool",
          "name": "",
          "type": "bool"
        }
      ],
      "stateMutability": "view",
      "type": "function",
      "constant": true
    },
    {
      "inputs": [],
      "name": "renounceOwnership",
      "outputs": [],
      "stateMutability": "nonpayable",
      "type": "function"
    },
    {
      "inputs": [],
      "name": "totalPatients",
      "outputs": [
        {
          "internalType": "uint256",
          "name": "",
          "type": "uint256"
        }
      ],
      "stateMutability": "view",
      "type": "function",
      "constant": true
    },
    {
      "inputs": [],
      "name": "totalRecords",
      "outputs": [
        {
          "internalType": "uint256",
          "name": "",
          "type": "uint256"
        }
      ],
      "stateMutability": "view",
      "type": "function",
      "constant": true
    },
    {
      "inputs": [],
      "name": "totalRewardsDistributed",
      "outputs": [
        {
          "internalType": "uint256",
          "name": "",
          "type": "uint256"
        }
      ],
      "stateMutability": "view",
      "type": "function",
      "constant": true
    },
    {
      "inputs": [
        {
          "internalType": "address",
          "name": "newOwner",
          "type": "address"
        }
      ],
      "name": "transferOwnership",
      "outputs": [],
      "stateMutability": "nonpayable",
      "type": "function"
    },
    {
      "inputs": [
        {
          "internalType": "string",
          "name": "",
          "type": "string"
        }
      ],
      "name": "usedDataHashes",
      "outputs": [
        {
          "internalType": "bool",
          "name": "",
          "type": "bool"
        }
      ],
      "stateMutability": "view",
      "type": "function",
      "constant": true
    },
    {
      "inputs": [
        {
          "internalType": "string",
          "name": "dataHash",
          "type": "string"
        },
        {
          "internalType": "string",
          "name": "metadataURI",
          "type": "string"
        },
        {
          "internalType": "bytes",
          "name": "consentPermissions",
          "type": "bytes"
        }
      ],
      "name": "submitPatientData",
      "outputs": [
        {
          "internalType": "uint256",
          "name": "",
          "type": "uint256"
        }
      ],
      "stateMutability": "nonpayable",
      "type": "function"
    },
    {
      "inputs": [
        {
          "internalType": "uint256",
          "name": "dataId",
          "type": "uint256"
        },
        {
          "internalType": "bytes",
          "name": "newConsentPermissions",
          "type": "bytes"
        }
      ],
      "name": "updateConsent",
      "outputs": [],
      "stateMutability": "nonpayable",
      "type": "function"
    },
    {
      "inputs": [
        {
          "internalType": "bool",
          "name": "allowResearch",
          "type": "bool"
        },
        {
          "internalType": "bool",
          "name": "allowCommercial",
          "type": "bool"
        },
        {
          "internalType": "bool",
          "name": "allowSharing",
          "type": "bool"
        },
        {
          "internalType": "uint256",
          "name": "retentionPeriod",
          "type": "uint256"
        },
        {
          "internalType": "string[]",
          "name": "allowedPurposes",
          "type": "string[]"
        }
      ],
      "name": "setConsentSettings",
      "outputs": [],
      "stateMutability": "nonpayable",
      "type": "function"
    },
    {
      "inputs": [
        {
          "internalType": "uint256",
          "name": "dataId",
          "type": "uint256"
        },
        {
          "internalType": "string",
          "name": "purpose",
          "type": "string"
        }
      ],
      "name": "recordDataAccess",
      "outputs": [],
      "stateMutability": "nonpayable",
      "type": "function"
    },
    {
      "inputs": [
        {
          "internalType": "address",
          "name": "patient",
          "type": "address"
        },
        {
          "internalType": "uint256",
          "name": "amount",
          "type": "uint256"
        },
        {
          "internalType": "string",
          "name": "reason",
          "type": "string"
        }
      ],
      "name": "distributeReward",
      "outputs": [],
      "stateMutability": "nonpayable",
      "type": "function"
    },
    {
      "inputs": [
        {
          "internalType": "address",
          "name": "patient",
          "type": "address"
        }
      ],
      "name": "getPatientRecords",
      "outputs": [
        {
          "internalType": "uint256[]",
          "name": "",
          "type": "uint256[]"
        }
      ],
      "stateMutability": "view",
      "type": "function",
      "constant": true
    },
    {
      "inputs": [
        {
          "internalType": "uint256",
          "name": "dataId",
          "type": "uint256"
        }
      ],
      "name": "getDataRecord",
      "outputs": [
        {
          "internalType": "address",
          "name": "patientAddress",
          "type": "address"
        },
        {
          "internalType": "string",
          "name": "dataHash",
          "type": "string"
        },
        {
          "internalType": "string",
          "name": "metadataURI",
          "type": "string"
        },
        {
          "internalType": "uint256",
          "name": "createdAt",
          "type": "uint256"
        },
        {
          "internalType": "uint256",
          "name": "accessCount",
          "type": "uint256"
        },
        {
          "internalType": "uint256",
          "name": "rewardEarned",
          "type": "uint256"
        },
        {
          "internalType": "bool",
          "name": "isActive",
          "type": "bool"
        }
      ],
      "stateMutability": "view",
      "type": "function",
      "constant": true
    },
    {
      "inputs": [
        {
          "internalType": "address",
          "name": "accessor",
          "type": "address"
        },
        {
          "internalType": "uint256",
          "name": "dataId",
          "type": "uint256"
        }
      ],
      "name": "hasAccessPermission",
      "outputs": [
        {
          "internalType": "bool",
          "name": "",
          "type": "bool"
        }
      ],
      "stateMutability": "view",
      "type": "function",
      "constant": true
    },
    {
      "inputs": [],
      "name": "pause",
      "outputs": [],
      "stateMutability": "nonpayable",
      "type": "function"
    },
    {
      "inputs": [],
      "name": "unpause",
      "outputs": [],
      "stateMutability": "nonpayable",
      "type": "function"
    },
    {
      "inputs": [],
      "name": "getStatistics",
      "outputs": [
        {
          "internalType": "uint256",
          "name": "_totalRecords",
          "type": "uint256"
        },
        {
          "internalType": "uint256",
          "name": "_totalPatients",
          "type": "uint256"
        },
        {
          "internalType": "uint256",
          "name": "_totalRewardsDistributed",
          "type": "uint256"
        }
      ],
      "stateMutability": "view",
      "type": "function",
      "constant": true
    }
  ],
  "bytecode": "0x608080604052346100695760008054336001600160a01b0319821681178355916001600160a01b03909116907f8be0079c531659141344cd1fd0a4f28419497f9722a3daafe3b4186f6b6457e09080a36001805560ff196002541660025561182f908161006f8239f35b600080fdfe6080604090808252600436101561001557600080fd5b60003560e01c908163125f8974146114765750806318bd4847146113c65780632a7ea9d2146111be578063372d6b271461118e5780633aad590b146110ad5780633f4ba83a146110195780634aefa8bf14610ff55780635c975abb14610fd15780635eda91ea14610aae5780636ca9a65414610a49578063715018a6146109f05780637bd0e5b21461082f5780638456cb59146107d55780638da5cb5b146107ac57806394f0df6114610754578063bd8b3153146106b4578063bfd8e92d1461040d578063c8592e0b14610317578063deb5ef09146102f8578063e94d9214146101ff578063ee172546146101e05763f2fde38b1461011357600080fd5b346101db5760203660031901126101db5761012c611491565b61013461166e565b6001600160a01b039081169182156101895750600054826bffffffffffffffffffffffff60a01b821617600055167f8be0079c531659141344cd1fd0a4f28419497f9722a3daafe3b4186f6b6457e0600080a3005b5162461bcd60e51b815260206004820152602660248201527f4f776e61626c653a206e6577206f776e657220697320746865207a65726f206160448201526564647265737360d01b6064820152608490fd5b600080fd5b50346101db5760003660031901126101db57602090600a549051908152f35b50346101db5761020e3661151c565b821515806102ec575b610220906117ae565b82600052600460205260018060a01b03846000205416331480156102e4575b156102aa577fb0af88c36398b2692a70212f933c50c2a5550d8a2f4e2ff0743560d02da35a369161029b9184600052600460205285600020600681016102858154611724565b9055600542910155855195808752860191611749565b924260208201528033940390a3005b835162461bcd60e51b8152602060048201526013602482015272556e617574686f72697a65642061636365737360681b6044820152606490fd5b50600061023f565b50600354831115610217565b50346101db5760003660031901126101db576020906009549051908152f35b50346101db5760203660031901126101db576004356000526004602052806000209060018060a01b038254169080519261035f8461035881600185016115d8565b038561157d565b81519061037a8261037381600285016115d8565b038361157d565b82519261038e8461035881600386016115d8565b6004820154936103ec6005840154916103de60068601549460ff6008600789015498015416976103d182519c8d9c8d5260208d61012091829101528d01906114f7565b918b8303908c01526114f7565b9088820360608a01526114f7565b94608087015260a086015260c085015260e084015215156101008301520390f35b50346101db5760a03660031901126101db576004358015158091036101db57602435918215158093036101db576044358015158091036101db576084356001600160401b03948582116101db57366023830112156101db578160040135908682116101db5760059036602484841b860101116101db573360005260209660068852866000209560ff61ff0062ff000089549360101b169460081b1692169062ffffff191617171784556002600194606435868201550190600160401b831161069e5781549083835581841061062a575b505060248392930190600052856000209060009260421981360301915b85851061052e57887f18f05335d9ce2847b7740fdae8eac97c47462b587bd2db9e9c1d280b0988124a8951914283523392a2005b8035838112156101db5782019060248201358b81116101db5780360360448401136101db5788918161056b8d936105658a5461159e565b8a6116dd565b6000601f82116001146105b257819085966000926105a4575b5050600019600383901b1c191690841b1787555b019401940193926104fa565b604492500101353880610584565b948860005283600020956000601f198416905b81811061060557509186979184889594106105e8575b505050811b018755610598565b0160440135600019600384901b60f8161c191690553880806105db565b9396839598604484899599949601013581550195019201918e949693918d96936105c5565b8260005285848960002093840193015b8381106106485750506104dd565b610652815461159e565b80610661575b5001869061063a565b601f9081811160011461067b575050600081555b38610658565b6106956000928484528d84209201861c82018583016116c6565b81835555610675565b634e487b7160e01b600052604160045260246000fd5b50346101db57602090816003193601126101db576004356001600160401b038082116101db57366023830112156101db57816004013590811161069e57825191610707601f8301601f191686018461157d565b81835284830136602484840101116101db5760ff936000878561073f96602483970186378301015285519384928392519283916114d4565b81016007815203019020541690519015158152f35b50346101db57806003193601126101db5761076d611491565b6001600160a01b03166000908152600560205281902080546024359291908310156101db5760209261079e9161154f565b91905490519160031b1c8152f35b50346101db5760003660031901126101db5760005490516001600160a01b039091168152602090f35b50346101db5760003660031901126101db5760207f62e78cea01bee320cd4e420270b5ea74000d11b0c9f74754ebdbfc544b05a2589161081361166e565b61081b61176a565b600160ff19600254161760025551338152a1005b50346101db5761083e3661151c565b91809391931515806109e4575b610854906117ae565b806000526020936004855260018060a01b0383600020541633036109a057816000526004855260038360002001906001600160401b03851161069e576108a48561089e845461159e565b846116dd565b600090601f8611600114610918577f18f05335d9ce2847b7740fdae8eac97c47462b587bd2db9e9c1d280b0988124a95916000918361090d575b50508160011b916000199060031b1c19161790555b6000526004835242600582600020015551914283523392a2005b0135905038806108de565b601f1986169183600052876000209260005b8982821061098a5750509160019391887f18f05335d9ce2847b7740fdae8eac97c47462b587bd2db9e9c1d280b0988124a999410610970575b505050811b0190556108f3565b0135600019600384901b60f8161c19169055388080610963565b600184968293958701358155019501920161092a565b825162461bcd60e51b815260048101869052601f60248201527f4f6e6c792070617469656e742063616e2075706461746520636f6e73656e74006044820152606490fd5b5060035481111561084b565b346101db5760003660031901126101db57610a0961166e565b600080546001600160a01b0319811682556001600160a01b03167f8be0079c531659141344cd1fd0a4f28419497f9722a3daafe3b4186f6b6457e08280a3005b50346101db5760203660031901126101db576080906001600160a01b03610a6e611491565b1660005260066020528060002090600182549201549060ff81519381811615158552818160081c161515602086015260101c161515908301526060820152f35b50346101db5760603660031901126101db576004356001600160401b0381116101db57610adf9036906004016114a7565b90916024356001600160401b0381116101db57610b009036906004016114a7565b92906044356001600160401b0381116101db57610b219036906004016114a7565b610b2961176a565b600260015414610f8d5760026001558315610f495760ff85518589823760208187810160078152030190205416610f055760016003540195866003558660005260046020528560002093336bffffffffffffffffffffffff60a01b8654161785556001600160401b03861161069e57610bb286610ba9600188015461159e565b600188016116dd565b856000601f8211600114610e9557600091610e8a575b508660011b906000198860031b1c19161760018601555b6001600160401b03821161069e578190610c0982610c00600289015461159e565b600289016116dd565b600090601f8311600114610e1957600092610e0e575b50508160011b916000199060031b1c19161760028401555b60038301916001600160401b03821161069e57610c5e82610c58855461159e565b856116dd565b600090601f8311600114610da25760089493929160009183610d97575b50508160011b916000199060031b1c19161790555b42600482015542600582015560006006820155600060078201550160ff1990600182825416179055336000526005602052826000205415610d84575b336000526005602052826000208054600160401b81101561069e576020968693610d20837fe44f3bd35b570c93c3c19d043c8c6de9214a29236134ec836b7cee21d01e5a06956001610d6e9601815561154f565b81549060031b9087821b91600019901b191617905560018751878482378a81898101600781520301902091825416179055610d5c600854611724565b60085585519486865286860191611749565b9242878201528033940390a36001805551908152f35b610d8f600954611724565b600955610ccc565b013590503880610c7b565b601f198316918460005260206000209260005b818110610df6575091600193918560089897969410610ddc575b505050811b019055610c90565b0135600019600384901b60f8161c19169055388080610dcf565b91936020600181928787013581550195019201610db5565b013590503880610c1f565b909250600286016000526020600020906000935b601f1984168510610e72576001945083601f19811610610e58575b505050811b016002840155610c37565b0135600019600384901b60f8161c19169055388080610e48565b81810135835560209485019460019093019201610e2d565b905089013538610bc8565b90506001860160005260206000209060005b8b601f198a168210610eed57505087601f19811610610ed3575b5050600186811b016001860155610bdf565b8a0135600019600389901b60f8161c191690553880610ec1565b60018394602093948493013581550193019101610ea7565b845162461bcd60e51b815260206004820152601860248201527f44617461206861736820616c72656164792065786973747300000000000000006044820152606490fd5b845162461bcd60e51b815260206004820152601960248201527f4461746120686173682063616e6e6f7420626520656d707479000000000000006044820152606490fd5b845162461bcd60e51b815260206004820152601f60248201527f5265656e7472616e637947756172643a207265656e7472616e742063616c6c006044820152606490fd5b50346101db5760003660031901126101db5760209060ff6002541690519015158152f35b50346101db57806003193601126101db57602090611011611491565b505160008152f35b50346101db5760003660031901126101db5761103361166e565b60025460ff8116156110725760ff1916600255513381527f5db9ee0a495bf2e6ff9c91a7834c1ba4fdd244a5e8aa4e537bd38aeae4b073aa90602090a1005b815162461bcd60e51b815260206004820152601460248201527314185d5cd8589b194e881b9bdd081c185d5cd95960621b6044820152606490fd5b50346101db5760203660031901126101db5760043580151580611182575b6110d4906117ae565b6000526004602052806000209060018060a01b0382541690600483015490600684015460078501549061116760ff60088801541693600261113f8251996111298b61112281600185016115d8565b038c61157d565b611138845180948193016115d8565b038261157d565b61115a8251998a998a5260e060208b015260e08a01906114f7565b91888303908901526114f7565b936060860152608085015260a0840152151560c08301520390f35b506003548111156110cb565b50346101db5760003660031901126101db576060906008549060095490600a549181519384526020840152820152f35b50346101db5760603660031901126101db576111d8611491565b6024918235906044356001600160401b0381116101db576111fd9036906004016114a7565b94909361120861166e565b6001600160a01b031680156113835783156113405780600052600560209281845284600020928551808587829754938481520190600052876000209260005b8982821061132a5750505061125e9250038561157d565b60005b8451808210156112d85780156112c35785518210156112ae57906112a9918782871b88010151600052600488526112a260078a60002001918b0482546117ec565b9055611724565b611261565b83634e487b7160e01b60005260326004526000fd5b83634e487b7160e01b60005260126004526000fd5b50507f49649141d16971a88c3cfdd73fec34babb1cf163cf8b804c8f537a023c6ce50685886113258b8d8b61130f85600a546117ec565b600a558080519687968752860152840191611749565b0390a2005b855484526001958601958a955093019201611247565b50601d606492519162461bcd60e51b8352602060048401528201527f416d6f756e74206d7573742062652067726561746572207468616e20300000006044820152fd5b506017606492519162461bcd60e51b8352602060048401528201527f496e76616c69642070617469656e7420616464726573730000000000000000006044820152fd5b50346101db576020806003193601126101db57906001600160a01b036113ea611491565b166000526005825280600020815192838183549182815201908193600052826000209060005b818110611462575050508461142691038561157d565b8251818152935181850181905284938401929160005b82811061144b57505050500390f35b83518552869550938101939281019260010161143c565b825484529284019260019283019201611410565b346101db5760003660031901126101db576020906008548152f35b600435906001600160a01b03821682036101db57565b9181601f840112156101db578235916001600160401b0383116101db57602083818601950101116101db57565b60005b8381106114e75750506000910152565b81810151838201526020016114d7565b90602091611510815180928185528580860191016114d4565b601f01601f1916010190565b9060406003198301126101db5760043591602435906001600160401b0382116101db5761154b916004016114a7565b9091565b80548210156115675760005260206000200190600090565b634e487b7160e01b600052603260045260246000fd5b90601f801991011681019081106001600160401b0382111761069e57604052565b90600182811c921680156115ce575b60208310146115b857565b634e487b7160e01b600052602260045260246000fd5b91607f16916115ad565b90600092918054916115e98361159e565b91828252600193848116908160001461164b575060011461160b575b50505050565b90919394506000526020928360002092846000945b838610611637575050505001019038808080611605565b805485870183015294019385908201611620565b9294505050602093945060ff191683830152151560051b01019038808080611605565b6000546001600160a01b0316330361168257565b606460405162461bcd60e51b815260206004820152602060248201527f4f776e61626c653a2063616c6c6572206973206e6f7420746865206f776e65726044820152fd5b8181106116d1575050565b600081556001016116c6565b9190601f81116116ec57505050565b611718926000526020600020906020601f840160051c8301931061171a575b601f0160051c01906116c6565b565b909150819061170b565b60001981146117335760010190565b634e487b7160e01b600052601160045260246000fd5b908060209392818452848401376000828201840152601f01601f1916010190565b60ff6002541661177657565b60405162461bcd60e51b815260206004820152601060248201526f14185d5cd8589b194e881c185d5cd95960821b6044820152606490fd5b156117b557565b60405162461bcd60e51b815260206004820152600f60248201526e125b9d985b1a590819185d18481251608a1b6044820152606490fd5b919082018092116117335756fea26469706673582212207366ab684b753db0106850885af329320b83d4d15668b870da33bcdbe44e08b764736f6c63430008130033",
  "immutableReferences": {},
  "source": "// SPDX-License-Identifier: MIT\r\npragma solidity ^0.8.19;\r\n\r\nimport \"@openzeppelin/contracts/access/Ownable.sol\";\r\nimport \"@openzeppelin/contracts/security/ReentrancyGuard.sol\";\r\nimport \"@openzeppelin/contracts/utils/Counters.sol\";\r\nimport \"@openzeppelin/contracts/security/Pausable.sol\";\r\n\r\n/**\r\n * @title PatientDataRegistry\r\n * @dev Manages patient health data with privacy controls and consent management\r\n */\r\ncontract PatientDataRegistry is Ownable, ReentrancyGuard, Pausable {\r\n    using Counters for Counters.Counter;\r\n    \r\n    struct DataRecord {\r\n        address patientAddress;\r\n        string dataHash;\r\n        string metadataURI;\r\n        bytes consentPermissions;\r\n        uint256 createdAt;\r\n        uint256 updatedAt;\r\n        uint256 accessCount;\r\n        uint256 rewardEarned;\r\n        bool isActive;\r\n    }\r\n    \r\n    struct ConsentSettings {\r\n        bool allowResearch;\r\n        bool allowCommercial;\r\n        bool allowSharing;\r\n        uint256 retentionPeriod;\r\n        string[] allowedPurposes;\r\n    }\r\n    \r\n    // Storage\r\n    Counters.Counter private _dataIdCounter;\r\n    mapping(uint256 => DataRecord) public dataRecords;\r\n    mapping(address => uint256[]) public patientRecords;\r\n    mapping(address => ConsentSettings) public patientConsent;\r\n    mapping(string => bool) public usedDataHashes;\r\n    \r\n    // Statistics\r\n    uint256 public totalRecords;\r\n    uint256 public totalPatients;\r\n    uint256 public totalRewardsDistributed;\r\n    \r\n    // Events\r\n    event DataSubmitted(\r\n        uint256 indexed dataId,\r\n        address indexed patient,\r\n        string dataHash,\r\n        uint256 timestamp\r\n    );\r\n    \r\n    event ConsentUpdated(\r\n        address indexed patient,\r\n        uint256 timestamp\r\n    );\r\n    \r\n    event DataAccessed(\r\n        uint256 indexed dataId,\r\n        address indexed accessor,\r\n        string purpose,\r\n        uint256 timestamp\r\n    );\r\n    \r\n    event RewardDistributed(\r\n        address indexed patient,\r\n        uint256 amount,\r\n        string reason\r\n    );\r\n    \r\n    modifier onlyPatientOrAuthorized(uint256 dataId) {\r\n        require(\r\n            dataRecords[dataId].patientAddress == msg.sender || \r\n            hasAccessPermission(msg.sender, dataId),\r\n            \"Unauthorized access\"\r\n        );\r\n        _;\r\n    }\r\n    \r\n    modifier validDataId(uint256 dataId) {\r\n        require(dataId > 0 && dataId <= _dataIdCounter.current(), \"Invalid data ID\");\r\n        _;\r\n    }\r\n    \r\n    constructor() {}\r\n    \r\n    /**\r\n     * @dev Submit new patient health data\r\n     */\r\n    function submitPatientData(\r\n        string calldata dataHash,\r\n        string calldata metadataURI,\r\n        bytes calldata consentPermissions\r\n    ) external whenNotPaused nonReentrant returns (uint256) {\r\n        require(bytes(dataHash).length > 0, \"Data hash cannot be empty\");\r\n        require(!usedDataHashes[dataHash], \"Data hash already exists\");\r\n        \r\n        _dataIdCounter.increment();\r\n        uint256 newDataId = _dataIdCounter.current();\r\n        \r\n        DataRecord storage record = dataRecords[newDataId];\r\n        record.patientAddress = msg.sender;\r\n        record.dataHash = dataHash;\r\n        record.metadataURI = metadataURI;\r\n        record.consentPermissions = consentPermissions;\r\n        record.createdAt = block.timestamp;\r\n        record.updatedAt = block.timestamp;\r\n        record.accessCount = 0;\r\n        record.rewardEarned = 0;\r\n        record.isActive = true;\r\n        \r\n        // Update patient records\r\n        if (patientRecords[msg.sender].length == 0) {\r\n            totalPatients++;\r\n        }\r\n        patientRecords[msg.sender].push(newDataId);\r\n        \r\n        // Mark hash as used\r\n        usedDataHashes[dataHash] = true;\r\n        totalRecords++;\r\n        \r\n        emit DataSubmitted(newDataId, msg.sender, dataHash, block.timestamp);\r\n        \r\n        return newDataId;\r\n    }\r\n    \r\n    /**\r\n     * @dev Update consent permissions for existing data\r\n     */\r\n    function updateConsent(\r\n        uint256 dataId,\r\n        bytes calldata newConsentPermissions\r\n    ) external validDataId(dataId) {\r\n        require(dataRecords[dataId].patientAddress == msg.sender, \"Only patient can update consent\");\r\n        \r\n        dataRecords[dataId].consentPermissions = newConsentPermissions;\r\n        dataRecords[dataId].updatedAt = block.timestamp;\r\n        \r\n        emit ConsentUpdated(msg.sender, block.timestamp);\r\n    }\r\n    \r\n    /**\r\n     * @dev Set global consent settings for a patient\r\n     */\r\n    function setConsentSettings(\r\n        bool allowResearch,\r\n        bool allowCommercial,\r\n        bool allowSharing,\r\n        uint256 retentionPeriod,\r\n        string[] calldata allowedPurposes\r\n    ) external {\r\n        ConsentSettings storage consent = patientConsent[msg.sender];\r\n        consent.allowResearch = allowResearch;\r\n        consent.allowCommercial = allowCommercial;\r\n        consent.allowSharing = allowSharing;\r\n        consent.retentionPeriod = retentionPeriod;\r\n        consent.allowedPurposes = allowedPurposes;\r\n        \r\n        emit ConsentUpdated(msg.sender, block.timestamp);\r\n    }\r\n    \r\n    /**\r\n     * @dev Record data access for audit trail\r\n     */\r\n    function recordDataAccess(\r\n        uint256 dataId,\r\n        string calldata purpose\r\n    ) external validDataId(dataId) onlyPatientOrAuthorized(dataId) {\r\n        DataRecord storage record = dataRecords[dataId];\r\n        record.accessCount++;\r\n        record.updatedAt = block.timestamp;\r\n        \r\n        emit DataAccessed(dataId, msg.sender, purpose, block.timestamp);\r\n    }\r\n    \r\n    /**\r\n     * @dev Distribute rewards to data contributors\r\n     */\r\n    function distributeReward(\r\n        address patient,\r\n        uint256 amount,\r\n        string calldata reason\r\n    ) external onlyOwner {\r\n        require(patient != address(0), \"Invalid patient address\");\r\n        require(amount > 0, \"Amount must be greater than 0\");\r\n        \r\n        // Update patient's total rewards across all their data records\r\n        uint256[] memory patientDataIds = patientRecords[patient];\r\n        for (uint256 i = 0; i < patientDataIds.length; i++) {\r\n            dataRecords[patientDataIds[i]].rewardEarned += amount / patientDataIds.length;\r\n        }\r\n        \r\n        totalRewardsDistributed += amount;\r\n        \r\n        emit RewardDistributed(patient, amount, reason);\r\n    }\r\n    \r\n    /**\r\n     * @dev Get patient's data records\r\n     */\r\n    function getPatientRecords(address patient) external view returns (uint256[] memory) {\r\n        return patientRecords[patient];\r\n    }\r\n    \r\n    /**\r\n     * @dev Get data record details\r\n     */\r\n    function getDataRecord(uint256 dataId) external view validDataId(dataId) \r\n        returns (\r\n            address patientAddress,\r\n            string memory dataHash,\r\n            string memory metadataURI,\r\n            uint256 createdAt,\r\n            uint256 accessCount,\r\n            uint256 rewardEarned,\r\n            bool isActive\r\n        ) {\r\n        DataRecord storage record = dataRecords[dataId];\r\n        return (\r\n            record.patientAddress,\r\n            record.dataHash,\r\n            record.metadataURI,\r\n            record.createdAt,\r\n            record.accessCount,\r\n            record.rewardEarned,\r\n            record.isActive\r\n        );\r\n    }\r\n    \r\n    /**\r\n     * @dev Check if address has access permission to data\r\n     */\r\n    function hasAccessPermission(address accessor, uint256 dataId) public view returns (bool) {\r\n        // Implement your access control logic here\r\n        // This could involve checking researcher verification, consent permissions, etc.\r\n        return false; // Placeholder implementation\r\n    }\r\n    \r\n    /**\r\n     * @dev Emergency pause functionality\r\n     */\r\n    function pause() external onlyOwner {\r\n        _pause();\r\n    }\r\n    \r\n    function unpause() external onlyOwner {\r\n        _unpause();\r\n    }\r\n    \r\n    /**\r\n     * @dev Get contract statistics\r\n     */\r\n    function getStatistics() external view returns (\r\n        uint256 _totalRecords,\r\n        uint256 _totalPatients,\r\n        uint256 _totalRewardsDistributed\r\n    ) {\r\n        return (totalRecords, totalPatients, totalRewardsDistributed);\r\n    }\r\n}",
  "sourcePath": "E:\\projects\\DeCliNet\\contracts\\contracts\\PatientDataRegistry.sol",
  "compiler": {
    "name": "solc",
    "version": "0.8.19+commit.7dd6d404.Emscripten.clang"
  },
  "schemaVersion": "3.4.16",
  "updatedAt": "2025-08-22T12:35:10.177Z",
  "networkType": "ethereum",
  "devdoc": {
    "details": "Manages patient health data with privacy controls and consent management",
    "events": {
      "Paused(address)": {
        "details": "Emitted when the pause is triggered by `account`."
      },
      "Unpaused(address)": {
        "details": "Emitted when the pause is lifted by `account`."
      }
    },
    "kind": "dev",
    "methods": {
      "distributeReward(address,uint256,string)": {
        "details": "Distribute rewards to data contributors"
      },
      "getDataRecord(uint256)": {
        "details": "Get data record details"
      },
      "getPatientRecords(address)": {
        "details": "Get patient's data records"
      },
      "getStatistics()": {
        "details": "Get contract statistics"
      },
      "hasAccessPermission(address,uint256)": {
        "details": "Check if address has access permission to data"
      },
      "owner()": {
        "details": "Returns the address of the current owner."
      },
      "pause()": {
        "details": "Emergency pause functionality"
      },
      "paused()": {
        "details": "Returns true if the contract is paused, and false otherwise."
      },
      "recordDataAccess(uint256,string)": {
        "details": "Record data access for audit trail"
      },
      "renounceOwnership()": {
        "details": "Leaves the contract without owner. It will not be possible to call `onlyOwner` functions. Can only be called by the current owner. NOTE: Renouncing ownership will leave the contract without an owner, thereby disabling any functionality that is only available to the owner."
      },
      "setConsentSettings(bool,bool,bool,uint256,string[])": {
        "details": "Set global consent settings for a patient"
      },
      "submitPatientData(string,string,bytes)": {
        "details": "Submit new patient health data"
      },
      "transferOwnership(address)": {
        "details": "Transfers ownership of the contract to a new account (`newOwner`). Can only be called by the current owner."
      },
      "updateConsent(uint256,bytes)": {
        "details": "Update consent permissions for existing data"
      }
    },
    "title": "PatientDataRegistry",
    "version": 1
  },
  "userdoc": {
    "kind": "user",
    "methods": {},
    "version": 1
  }
}