{
  "contractName": "ResearchDAO",
  "abi": [
    {
      "inputs": [
        {
          "internalType": "address",
          "name": "_dcnetToken",
          "type": "address"
        }
      ],
      "stateMutability": "nonpayable",
      "type": "constructor"
    },
    {
      "anonymous": false,
      "inputs": [
        {
          "indexed": true,
          "internalType": "address",
          "name": "depositor",
          "type": "address"
        },
        {
          "indexed": false,
          "internalType": "uint256",
          "name": "amount",
          "type": "uint256"
        },
        {
          "indexed": false,
          "internalType": "uint256",
          "name": "timestamp",
          "type": "uint256"
        }
      ],
      "name": "FundsDeposited",
      "type": "event"
    },
    {
      "anonymous": false,
      "inputs": [
        {
          "indexed": true,
          "internalType": "address",
          "name": "previousOwner",
          "type": "address"
        },
        {
          "indexed": true,
          "internalType": "address",
          "name": "newOwner",
          "type": "address"
        }
      ],
      "name": "OwnershipTransferred",
      "type": "event"
    },
    {
      "anonymous": false,
      "inputs": [
        {
          "indexed": true,
          "internalType": "uint256",
          "name": "proposalId",
          "type": "uint256"
        },
        {
          "indexed": true,
          "internalType": "address",
          "name": "proposer",
          "type": "address"
        },
        {
          "indexed": false,
          "internalType": "string",
          "name": "title",
          "type": "string"
        },
        {
          "indexed": false,
          "internalType": "uint256",
          "name": "fundingRequested",
          "type": "uint256"
        },
        {
          "indexed": false,
          "internalType": "uint256",
          "name": "votingDeadline",
          "type": "uint256"
        }
      ],
      "name": "ProposalCreated",
      "type": "event"
    },
    {
      "anonymous": false,
      "inputs": [
        {
          "indexed": true,
          "internalType": "uint256",
          "name": "proposalId",
          "type": "uint256"
        },
        {
          "indexed": false,
          "internalType": "enum ResearchDAO.ProposalStatus",
          "name": "status",
          "type": "uint8"
        },
        {
          "indexed": false,
          "internalType": "uint256",
          "name": "timestamp",
          "type": "uint256"
        }
      ],
      "name": "ProposalExecuted",
      "type": "event"
    },
    {
      "anonymous": false,
      "inputs": [
        {
          "indexed": true,
          "internalType": "uint256",
          "name": "proposalId",
          "type": "uint256"
        },
        {
          "indexed": true,
          "internalType": "address",
          "name": "voter",
          "type": "address"
        },
        {
          "indexed": false,
          "internalType": "bool",
          "name": "support",
          "type": "bool"
        },
        {
          "indexed": false,
          "internalType": "uint256",
          "name": "weight",
          "type": "uint256"
        },
        {
          "indexed": false,
          "internalType": "uint256",
          "name": "timestamp",
          "type": "uint256"
        }
      ],
      "name": "VoteCast",
      "type": "event"
    },
    {
      "inputs": [],
      "name": "approvalThreshold",
      "outputs": [
        {
          "internalType": "uint256",
          "name": "",
          "type": "uint256"
        }
      ],
      "stateMutability": "view",
      "type": "function",
      "constant": true
    },
    {
      "inputs": [],
      "name": "dcnetToken",
      "outputs": [
        {
          "internalType": "contract IERC20",
          "name": "",
          "type": "address"
        }
      ],
      "stateMutability": "view",
      "type": "function",
      "constant": true
    },
    {
      "inputs": [],
      "name": "owner",
      "outputs": [
        {
          "internalType": "address",
          "name": "",
          "type": "address"
        }
      ],
      "stateMutability": "view",
      "type": "function",
      "constant": true
    },
    {
      "inputs": [],
      "name": "proposalThreshold",
      "outputs": [
        {
          "internalType": "uint256",
          "name": "",
          "type": "uint256"
        }
      ],
      "stateMutability": "view",
      "type": "function",
      "constant": true
    },
    {
      "inputs": [
        {
          "internalType": "uint256",
          "name": "",
          "type": "uint256"
        }
      ],
      "name": "proposals",
      "outputs": [
        {
          "internalType": "uint256",
          "name": "id",
          "type": "uint256"
        },
        {
          "internalType": "address",
          "name": "proposer",
          "type": "address"
        },
        {
          "internalType": "string",
          "name": "title",
          "type": "string"
        },
        {
          "internalType": "string",
          "name": "description",
          "type": "string"
        },
        {
          "internalType": "string",
          "name": "metadataURI",
          "type": "string"
        },
        {
          "internalType": "uint256",
          "name": "fundingRequested",
          "type": "uint256"
        },
        {
          "internalType": "uint256",
          "name": "votingDeadline",
          "type": "uint256"
        },
        {
          "internalType": "uint256",
          "name": "votesFor",
          "type": "uint256"
        },
        {
          "internalType": "uint256",
          "name": "votesAgainst",
          "type": "uint256"
        },
        {
          "internalType": "enum ResearchDAO.ProposalStatus",
          "name": "status",
          "type": "uint8"
        },
        {
          "internalType": "uint256",
          "name": "createdAt",
          "type": "uint256"
        }
      ],
      "stateMutability": "view",
      "type": "function",
      "constant": true
    },
    {
      "inputs": [],
      "name": "quorumPercentage",
      "outputs": [
        {
          "internalType": "uint256",
          "name": "",
          "type": "uint256"
        }
      ],
      "stateMutability": "view",
      "type": "function",
      "constant": true
    },
    {
      "inputs": [],
      "name": "renounceOwnership",
      "outputs": [],
      "stateMutability": "nonpayable",
      "type": "function"
    },
    {
      "inputs": [],
      "name": "totalTreasuryFunds",
      "outputs": [
        {
          "internalType": "uint256",
          "name": "",
          "type": "uint256"
        }
      ],
      "stateMutability": "view",
      "type": "function",
      "constant": true
    },
    {
      "inputs": [
        {
          "internalType": "address",
          "name": "newOwner",
          "type": "address"
        }
      ],
      "name": "transferOwnership",
      "outputs": [],
      "stateMutability": "nonpayable",
      "type": "function"
    },
    {
      "inputs": [
        {
          "internalType": "address",
          "name": "",
          "type": "address"
        },
        {
          "internalType": "uint256",
          "name": "",
          "type": "uint256"
        }
      ],
      "name": "userProposals",
      "outputs": [
        {
          "internalType": "uint256",
          "name": "",
          "type": "uint256"
        }
      ],
      "stateMutability": "view",
      "type": "function",
      "constant": true
    },
    {
      "inputs": [
        {
          "internalType": "address",
          "name": "",
          "type": "address"
        }
      ],
      "name": "voters",
      "outputs": [
        {
          "internalType": "uint256",
          "name": "tokenBalance",
          "type": "uint256"
        },
        {
          "internalType": "uint256",
          "name": "votingPower",
          "type": "uint256"
        },
        {
          "internalType": "uint256",
          "name": "reputation",
          "type": "uint256"
        },
        {
          "internalType": "bool",
          "name": "isVerified",
          "type": "bool"
        }
      ],
      "stateMutability": "view",
      "type": "function",
      "constant": true
    },
    {
      "inputs": [],
      "name": "votingPeriod",
      "outputs": [
        {
          "internalType": "uint256",
          "name": "",
          "type": "uint256"
        }
      ],
      "stateMutability": "view",
      "type": "function",
      "constant": true
    },
    {
      "inputs": [
        {
          "internalType": "string",
          "name": "title",
          "type": "string"
        },
        {
          "internalType": "string",
          "name": "description",
          "type": "string"
        },
        {
          "internalType": "string",
          "name": "metadataURI",
          "type": "string"
        },
        {
          "internalType": "uint256",
          "name": "fundingRequested",
          "type": "uint256"
        }
      ],
      "name": "submitProposal",
      "outputs": [
        {
          "internalType": "uint256",
          "name": "",
          "type": "uint256"
        }
      ],
      "stateMutability": "nonpayable",
      "type": "function"
    },
    {
      "inputs": [
        {
          "internalType": "uint256",
          "name": "proposalId",
          "type": "uint256"
        },
        {
          "internalType": "bool",
          "name": "support",
          "type": "bool"
        },
        {
          "internalType": "uint256",
          "name": "tokenAmount",
          "type": "uint256"
        }
      ],
      "name": "vote",
      "outputs": [],
      "stateMutability": "nonpayable",
      "type": "function"
    },
    {
      "inputs": [
        {
          "internalType": "uint256",
          "name": "proposalId",
          "type": "uint256"
        }
      ],
      "name": "executeProposal",
      "outputs": [],
      "stateMutability": "nonpayable",
      "type": "function"
    },
    {
      "inputs": [
        {
          "internalType": "uint256",
          "name": "amount",
          "type": "uint256"
        }
      ],
      "name": "depositTreasuryFunds",
      "outputs": [],
      "stateMutability": "nonpayable",
      "type": "function"
    },
    {
      "inputs": [
        {
          "internalType": "address",
          "name": "voter",
          "type": "address"
        },
        {
          "internalType": "bool",
          "name": "isVerified",
          "type": "bool"
        }
      ],
      "name": "verifyVoter",
      "outputs": [],
      "stateMutability": "nonpayable",
      "type": "function"
    },
    {
      "inputs": [
        {
          "internalType": "address",
          "name": "voter",
          "type": "address"
        }
      ],
      "name": "calculateVotingPower",
      "outputs": [
        {
          "internalType": "uint256",
          "name": "",
          "type": "uint256"
        }
      ],
      "stateMutability": "view",
      "type": "function",
      "constant": true
    },
    {
      "inputs": [
        {
          "internalType": "uint256",
          "name": "proposalId",
          "type": "uint256"
        }
      ],
      "name": "getProposal",
      "outputs": [
        {
          "internalType": "address",
          "name": "proposer",
          "type": "address"
        },
        {
          "internalType": "string",
          "name": "title",
          "type": "string"
        },
        {
          "internalType": "string",
          "name": "description",
          "type": "string"
        },
        {
          "internalType": "uint256",
          "name": "fundingRequested",
          "type": "uint256"
        },
        {
          "internalType": "uint256",
          "name": "votingDeadline",
          "type": "uint256"
        },
        {
          "internalType": "uint256",
          "name": "votesFor",
          "type": "uint256"
        },
        {
          "internalType": "uint256",
          "name": "votesAgainst",
          "type": "uint256"
        },
        {
          "internalType": "enum ResearchDAO.ProposalStatus",
          "name": "status",
          "type": "uint8"
        },
        {
          "internalType": "uint256",
          "name": "createdAt",
          "type": "uint256"
        }
      ],
      "stateMutability": "view",
      "type": "function",
      "constant": true
    },
    {
      "inputs": [
        {
          "internalType": "uint256",
          "name": "_proposalThreshold",
          "type": "uint256"
        },
        {
          "internalType": "uint256",
          "name": "_votingPeriod",
          "type": "uint256"
        },
        {
          "internalType": "uint256",
          "name": "_quorumPercentage",
          "type": "uint256"
        },
        {
          "internalType": "uint256",
          "name": "_approvalThreshold",
          "type": "uint256"
        }
      ],
      "name": "updateDAOParameters",
      "outputs": [],
      "stateMutability": "nonpayable",
      "type": "function"
    },
    {
      "inputs": [],
      "name": "getDAOStatistics",
      "outputs": [
        {
          "internalType": "uint256",
          "name": "totalProposals",
          "type": "uint256"
        },
        {
          "internalType": "uint256",
          "name": "activeProposals",
          "type": "uint256"
        },
        {
          "internalType": "uint256",
          "name": "_totalTreasuryFunds",
          "type": "uint256"
        },
        {
          "internalType": "uint256",
          "name": "totalVerifiedVoters",
          "type": "uint256"
        }
      ],
      "stateMutability": "view",
      "type": "function",
      "constant": true
    }
  ],
  "bytecode": "0x6080346100c957601f611b9038819003918201601f19168301916001600160401b038311848410176100ce578084926020946040528339810103126100c957516001600160a01b0390818116908190036100c95760005460018060a01b0319903382821617600055604051933391167f8be0079c531659141344cd1fd0a4f28419497f9722a3daafe3b4186f6b6457e0600080a360018055683635c9adc5dea0000060075562093a80600855600a6009556033600a556002541617600255611aab90816100e58239f35b600080fd5b634e487b7160e01b600052604160045260246000fdfe6080604052600436101561001257600080fd5b60003560e01c8063013cf08b1461142857806302a251a31461140a57806302c9846d146113215780630d61b519146110d85780631b31527f146110805780634fa76ec91461106257806359d177e614611037578063715018a614610fde5780637d0eef6114610fc05780637ef729d11461094157806382301c69146109185780638da5cb5b146108ef5780638ed18704146107de578063a3ec138d1461077d578063ac662b2b146106f3578063b58131b0146106d5578063c7f758a8146105f3578063cd2cfbf4146105d5578063cf05ca2d146105a2578063d46a5d7e146101d15763f2fde38b1461010357600080fd5b346101cc5760203660031901126101cc5761011c611668565b6101246116e9565b6001600160a01b0390811690811561017857600054826bffffffffffffffffffffffff60a01b821617600055167f8be0079c531659141344cd1fd0a4f28419497f9722a3daafe3b4186f6b6457e0600080a3005b60405162461bcd60e51b815260206004820152602660248201527f4f776e61626c653a206e6577206f776e657220697320746865207a65726f206160448201526564647265737360d01b6064820152608490fd5b600080fd5b346101cc5760603660031901126101cc576004356101ed61167e565b604491823581151580610596575b6102049061178f565b3360005260206005815261022260ff60036040600020015416611741565b6001946002865414610553576002865583600052600482526040600020600681015442116105195760ff600b8201541660058110156105035761026590156117d1565b60098101933360005284845260ff604060002054166104cf57801561047f576002546040516370a0823160e01b81523360048201526001600160a01b0390911693908581602481885afa80156103ff57839160009161044e575b501061040b57506040516323b872dd60e01b815233600482015230602482015260448101829052928490849060649082906000905af19081156103ff5761031461031992600a956000916103d2575b5061182b565b611919565b9386156103bc576007820161032f868254611782565b90555b33600052835260406000208760ff19825416179055018152816040600020556005815260026040600020018054908682018092116103a6575560405193151584528301524260408301527f77a255f45c79d26605c257d8dfc37f9a619f53963ddbed1e95aa0aab1c801cee60603393a38055005b634e487b7160e01b600052601160045260246000fd5b600882016103cb868254611782565b9055610332565b6103f29150873d89116103f8575b6103ea8183611553565b810190611813565b8b61030e565b503d6103e0565b6040513d6000823e3d90fd5b847f496e73756666696369656e7420746f6b656e2062616c616e63650000000000006064926040519262461bcd60e51b84526004840152601a6024840152820152fd5b809250878092503d8311610478575b6104678183611553565b810103126101cc578290518b6102bf565b503d61045d565b60405162461bcd60e51b815260048101859052602360248201527f546f6b656e20616d6f756e74206d757374206265206772656174657220746861818501526206e20360ec1b6064820152608490fd5b60405162461bcd60e51b815260048101859052600d60248201526c105b1c9958591e481d9bdd1959609a1b81850152606490fd5b634e487b7160e01b600052602160045260246000fd5b60405162461bcd60e51b8152600481018490526013602482015272159bdd1a5b99c81c195c9a5bd908195b991959606a1b81840152606490fd5b907f5265656e7472616e637947756172643a207265656e7472616e742063616c6c006064926040519262461bcd60e51b84526004840152601f6024840152820152fd5b506003548211156101fb565b346101cc5760803660031901126101cc576105bb6116e9565b600435600755602435600855604435600955606435600a55005b346101cc5760003660031901126101cc576020600b54604051908152f35b346101cc5760203660031901126101cc57600435801515806106c9575b6106199061178f565b6000526004602052604060002060018060a01b03600182015416600582015460068301546106bf6007850154600886015460ff600b8801541691600c880154946106a0610674600361066d60028d01611575565b9b01611575565b6106926040519b8c9b8c5260208c61012091829101528c019061161b565b908a820360408c015261161b565b966060890152608088015260a087015260c086015260e085019061165b565b6101008301520390f35b50600354811115610610565b346101cc5760003660031901126101cc576020600754604051908152f35b346101cc5760003660031901126101cc5760006001600354905b818111156107365750608091600b54906040519283526020830152604082015260006060820152f35b80600052600460205260ff600b604060002001541660058110156105035715610768575b61076390611a66565b61070d565b9161077561076391611a66565b92905061075a565b346101cc5760203660031901126101cc576001600160a01b0361079e611668565b1660005260056020526080604060002080549060018101549060ff6003600283015492015416916040519384526020840152604083015215156060820152f35b346101cc576020806003193601126101cc576004359081156108ab576002546040516323b872dd60e01b815233600482015230602482015260448101849052908290829060649082906000906001600160a01b03165af180156103ff5761084c9160009161088e575061182b565b61085882600b54611782565b600b5560405191825242908201527fbee4fe3675934fca827426c793623996a3079255089bda3a717019ffc5db276560403392a2005b6108a59150833d85116103f8576103ea8183611553565b8461030e565b6064906040519062461bcd60e51b82526004820152601d60248201527f416d6f756e74206d7573742062652067726561746572207468616e20300000006044820152fd5b346101cc5760003660031901126101cc576000546040516001600160a01b039091168152602090f35b346101cc5760003660031901126101cc576002546040516001600160a01b039091168152602090f35b346101cc5760803660031901126101cc5760043567ffffffffffffffff81116101cc576109729036906004016116bb565b60243567ffffffffffffffff81116101cc576109929036906004016116bb565b91909260443567ffffffffffffffff81116101cc576109b59036906004016116bb565b903360005260056020526109d360ff60036040600020015416611741565b8315610f835760643515610f3e576002546040516370a0823160e01b815233600482015290602090829060249082906001600160a01b03165afa9081156103ff57600091610f0c575b5060075411610eb857600160035401948560035585600052600460205260406000209686885560018801336bffffffffffffffffffffffff60a01b82541617905567ffffffffffffffff8611610c4457610a796002890154611519565b601f8111610e71575b50856000601f8211600114610e0357600091610df8575b508660011b906000198860031b1c19161760028901555b67ffffffffffffffff8211610c44578190610ace60038a0154611519565b601f8111610da5575b50600090601f8311600114610d3457600092610d29575b50508160011b916000199060031b1c19161760038701555b67ffffffffffffffff8211610c44578190610b246004880154611519565b601f8111610cd6575b50600090601f8311600114610c6557600092610c5a575b50508160011b916000199060031b1c19161760048501555b6064356005850155610b7060085442611782565b93600681019485556000600782015560006008820155600b810160ff198154169055600c42910155336000526006602052604060002090815490600160401b821015610c4457602095610beb83879560017f6c98a8c940418b35614f0cd02412d5c9606faff474cbb6cdd6640ba5d1a9f06b9601815561168d565b81549060031b9086821b91600019901b19161790555484604051926060845281606085015260808401376000608086840101526064358783015260408201526080813395601f80199101168101030190a3604051908152f35b634e487b7160e01b600052604160045260246000fd5b013590508680610b44565b909150601f198316916004880160005260206000209260005b818110610cbe5750908460019594939210610ca4575b505050811b016004850155610b5c565b0135600019600384901b60f8161c19169055868080610c94565b91936020600181928787013581550195019201610c7e565b909150600487016000526020600020601f840160051c810160208510610d22575b90849392915b601f830160051c82018110610d13575050610b2d565b60008155859450600101610cfd565b5080610cf7565b013590508880610aee565b909150601f1983169160038a0160005260206000209260005b818110610d8d5750908460019594939210610d73575b505050811b016003870155610b06565b0135600019600384901b60f8161c19169055888080610d63565b91936020600181928787013581550195019201610d4d565b909150600389016000526020600020601f840160051c810160208510610df1575b90849392915b601f830160051c82018110610de2575050610ad7565b60008155859450600101610dcc565b5080610dc6565b905085013589610a99565b90506002890160005260206000209060005b601f1989168110610e59575087601f19811610610e3f575b5050600186811b016002890155610ab0565b860135600019600389901b60f8161c191690558880610e2d565b9091602060018192858b013581550193019101610e15565b600289016000526020600020601f880160051c810160208910610eb1575b601f830160051c82018110610ea5575050610a82565b60008155600101610e8f565b5080610e8f565b60405162461bcd60e51b815260206004820152602660248201527f496e73756666696369656e7420746f6b656e7320746f206372656174652070726044820152651bdc1bdcd85b60d21b6064820152608490fd5b90506020813d602011610f36575b81610f2760209383611553565b810103126101cc575187610a1c565b3d9150610f1a565b60405162461bcd60e51b815260206004820152601e60248201527f46756e64696e67206d7573742062652067726561746572207468616e203000006044820152606490fd5b60405162461bcd60e51b81526020600482015260156024820152745469746c652063616e6e6f7420626520656d70747960581b6044820152606490fd5b346101cc5760003660031901126101cc576020600a54604051908152f35b346101cc5760003660031901126101cc57610ff76116e9565b600080546001600160a01b0319811682556001600160a01b03167f8be0079c531659141344cd1fd0a4f28419497f9722a3daafe3b4186f6b6457e08280a3005b346101cc5760203660031901126101cc57602061105a611055611668565b6118a2565b604051908152f35b346101cc5760003660031901126101cc576020600954604051908152f35b346101cc5760403660031901126101cc57611099611668565b6001600160a01b03166000908152600660205260409020805460243591908210156101cc576020916110ca9161168d565b90546040519160031b1c8152f35b346101cc576020806003193601126101cc576004359081151580611315575b6111009061178f565b8160005260048152604060002060068101544211156112d057600b810190815460ff811660058110156105035761113790156117d1565b600782015461114a600884015482611782565b6002546040516318160ddd60e01b8152908790829060049082906001600160a01b03165afa9081156103ff576000916112a1575b5061118e6064916009549061186f565b048110156111e357505050507f331f1f50ad344be3dd617fa7f15a5f74dea96ea44d7386f6ca35e580747f271f9160ff604092600282198254161781555b5416906111db8351809361165b565b4290820152a2005b6064820291808304606414901517156103a6576111ff91611882565b600a541161126a5750815460ff1916600117825560050154600b549081811115611252575b50507f331f1f50ad344be3dd617fa7f15a5f74dea96ea44d7386f6ca35e580747f271f9160ff6040926111cc565b8103929083116103a657600b929092558160ff611224565b60ff19166002178255507f331f1f50ad344be3dd617fa7f15a5f74dea96ea44d7386f6ca35e580747f271f9160409160ff906111cc565b90508681813d83116112c9575b6112b88183611553565b810103126101cc575161118e61117e565b503d6112ae565b60405162461bcd60e51b815260048101839052601760248201527f566f74696e6720706572696f64206e6f7420656e6465640000000000000000006044820152606490fd5b506003548211156110f7565b346101cc5760403660031901126101cc5761133a611668565b61134261167e565b9061134b6116e9565b60018060a01b0391828216928360005260209160058352600360406000200160ff1981541660ff8315151617905561137f57005b8160249160025416604051928380926370a0823160e01b82528860048301525afa9081156103ff576000916113dc575b506005926113c991856000528484526040600020556118a2565b9260005252600160406000200155600080f35b90508181813d8311611403575b6113f38183611553565b810103126101cc575160056113af565b503d6113e9565b346101cc5760003660031901126101cc576020600854604051908152f35b346101cc5760203660031901126101cc5760048035600090815260209190915260409020805460018201546001600160a01b03169161146960028201611575565b61147560038301611575565b9161148260048201611575565b926005820154936006830154600784015491600885015493600b86015460ff1695600c0154966040519a8b9a8b5260208b01526101608060408c01528a016114c99161161b565b89810360608b01526114da9161161b565b88810360808a01526114eb9161161b565b9560a088015260c087015260e0860152610100850152610120840161150f9161165b565b6101408301520390f35b90600182811c92168015611549575b602083101461153357565b634e487b7160e01b600052602260045260246000fd5b91607f1691611528565b90601f8019910116810190811067ffffffffffffffff821117610c4457604052565b906040519182600082549261158984611519565b9081845260019485811690816000146115f857506001146115b5575b50506115b392500383611553565b565b9093915060005260209081600020936000915b8183106115e05750506115b3935082010138806115a5565b855488840185015294850194879450918301916115c8565b9150506115b394506020925060ff191682840152151560051b82010138806115a5565b919082519283825260005b848110611647575050826000602080949584010152601f8019910116010190565b602081830181015184830182015201611626565b9060058210156105035752565b600435906001600160a01b03821682036101cc57565b6024359081151582036101cc57565b80548210156116a55760005260206000200190600090565b634e487b7160e01b600052603260045260246000fd5b9181601f840112156101cc5782359167ffffffffffffffff83116101cc57602083818601950101116101cc57565b6000546001600160a01b031633036116fd57565b606460405162461bcd60e51b815260206004820152602060248201527f4f776e61626c653a2063616c6c6572206973206e6f7420746865206f776e65726044820152fd5b1561174857565b60405162461bcd60e51b8152602060048201526012602482015271159bdd195c881b9bdd081d995c9a599a595960721b6044820152606490fd5b919082018092116103a657565b1561179657565b60405162461bcd60e51b8152602060048201526013602482015272125b9d985b1a59081c1c9bdc1bdcd85b081251606a1b6044820152606490fd5b156117d857565b60405162461bcd60e51b815260206004820152601360248201527250726f706f73616c206e6f742061637469766560681b6044820152606490fd5b908160209103126101cc575180151581036101cc5790565b1561183257565b60405162461bcd60e51b8152602060048201526015602482015274151bdad95b881d1c985b9cd9995c8819985a5b1959605a1b6044820152606490fd5b818102929181159184041417156103a657565b811561188c570490565b634e487b7160e01b600052601260045260246000fd5b60018060a01b031660005260056020526040600020604051608081019181831067ffffffffffffffff841117610c445761190f6064916119169460405280549384815260018201546020820152606060ff600360028501549485604086015201541615159101528361186f565b0490611782565b90565b8015611a6057600181600160801b811015611a4e575b6119df6119d26119c56119b86119ab61199e6119f697600888600160401b6119ec9a1015611a41575b640100000000811015611a34575b62010000811015611a28575b610100811015611a1c575b6010811015611a0f575b1015611a07575b611998818b611882565b90611782565b60011c611998818a611882565b60011c6119988189611882565b60011c6119988188611882565b60011c6119988187611882565b60011c6119988186611882565b60011c6119988185611882565b60011c8092611882565b80821015611a02575090565b905090565b60011b61198e565b60041c9160021b91611987565b811c9160041b9161197d565b60101c91811b91611972565b60201c9160101b91611966565b60401c9160201b91611958565b50600160401b9050608082901c61192f565b50600090565b60001981146103a6576001019056fea264697066735822122055534bad28e0471cd85d5496aa1e2623192f04f504f957702f41d458da1a8b4064736f6c63430008130033",
  "immutableReferences": {},
  "source": "// SPDX-License-Identifier: MIT\r\npragma solidity ^0.8.19;\r\n\r\nimport \"@openzeppelin/contracts/token/ERC20/IERC20.sol\";\r\nimport \"@openzeppelin/contracts/access/Ownable.sol\";\r\nimport \"@openzeppelin/contracts/security/ReentrancyGuard.sol\";\r\nimport \"@openzeppelin/contracts/utils/Counters.sol\";\r\n\r\n/**\r\n * @title ResearchDAO\r\n * @dev Decentralized governance for research funding and community decisions\r\n */\r\ncontract ResearchDAO is Ownable, ReentrancyGuard {\r\n    using Counters for Counters.Counter;\r\n    \r\n    IERC20 public dcnetToken;\r\n    \r\n    enum ProposalStatus { Active, Approved, Rejected, Completed, Cancelled }\r\n    \r\n    struct ResearchProposal {\r\n        uint256 id;\r\n        address proposer;\r\n        string title;\r\n        string description;\r\n        string metadataURI;\r\n        uint256 fundingRequested;\r\n        uint256 votingDeadline;\r\n        uint256 votesFor;\r\n        uint256 votesAgainst;\r\n        mapping(address => bool) hasVoted;\r\n        mapping(address => uint256) voteWeight;\r\n        ProposalStatus status;\r\n        uint256 createdAt;\r\n    }\r\n    \r\n    struct Voter {\r\n        uint256 tokenBalance;\r\n        uint256 votingPower;\r\n        uint256 reputation;\r\n        bool isVerified;\r\n    }\r\n    \r\n    // Storage\r\n    Counters.Counter private _proposalIdCounter;\r\n    mapping(uint256 => ResearchProposal) public proposals;\r\n    mapping(address => Voter) public voters;\r\n    mapping(address => uint256[]) public userProposals;\r\n    \r\n    // DAO Parameters\r\n    uint256 public proposalThreshold = 1000 * 10**18; // 1000 DCNET tokens\r\n    uint256 public votingPeriod = 7 days;\r\n    uint256 public quorumPercentage = 10; // 10% of total supply\r\n    uint256 public approvalThreshold = 51; // 51% approval needed\r\n    uint256 public totalTreasuryFunds;\r\n    \r\n    // Events\r\n    event ProposalCreated(\r\n        uint256 indexed proposalId,\r\n        address indexed proposer,\r\n        string title,\r\n        uint256 fundingRequested,\r\n        uint256 votingDeadline\r\n    );\r\n    \r\n    event VoteCast(\r\n        uint256 indexed proposalId,\r\n        address indexed voter,\r\n        bool support,\r\n        uint256 weight,\r\n        uint256 timestamp\r\n    );\r\n    \r\n    event ProposalExecuted(\r\n        uint256 indexed proposalId,\r\n        ProposalStatus status,\r\n        uint256 timestamp\r\n    );\r\n    \r\n    event FundsDeposited(\r\n        address indexed depositor,\r\n        uint256 amount,\r\n        uint256 timestamp\r\n    );\r\n    \r\n    modifier onlyVerifiedVoter() {\r\n        require(voters[msg.sender].isVerified, \"Voter not verified\");\r\n        _;\r\n    }\r\n    \r\n    modifier validProposalId(uint256 proposalId) {\r\n        require(proposalId > 0 && proposalId <= _proposalIdCounter.current(), \"Invalid proposal ID\");\r\n        _;\r\n    }\r\n    \r\n    constructor(address _dcnetToken) {\r\n        dcnetToken = IERC20(_dcnetToken);\r\n    }\r\n    \r\n    /**\r\n     * @dev Submit new research proposal\r\n     */\r\n    function submitProposal(\r\n        string calldata title,\r\n        string calldata description,\r\n        string calldata metadataURI,\r\n        uint256 fundingRequested\r\n    ) external onlyVerifiedVoter returns (uint256) {\r\n        require(bytes(title).length > 0, \"Title cannot be empty\");\r\n        require(fundingRequested > 0, \"Funding must be greater than 0\");\r\n        require(\r\n            dcnetToken.balanceOf(msg.sender) >= proposalThreshold,\r\n            \"Insufficient tokens to create proposal\"\r\n        );\r\n        \r\n        _proposalIdCounter.increment();\r\n        uint256 newProposalId = _proposalIdCounter.current();\r\n        \r\n        ResearchProposal storage proposal = proposals[newProposalId];\r\n        proposal.id = newProposalId;\r\n        proposal.proposer = msg.sender;\r\n        proposal.title = title;\r\n        proposal.description = description;\r\n        proposal.metadataURI = metadataURI;\r\n        proposal.fundingRequested = fundingRequested;\r\n        proposal.votingDeadline = block.timestamp + votingPeriod;\r\n        proposal.votesFor = 0;\r\n        proposal.votesAgainst = 0;\r\n        proposal.status = ProposalStatus.Active;\r\n        proposal.createdAt = block.timestamp;\r\n        \r\n        userProposals[msg.sender].push(newProposalId);\r\n        \r\n        emit ProposalCreated(\r\n            newProposalId,\r\n            msg.sender,\r\n            title,\r\n            fundingRequested,\r\n            proposal.votingDeadline\r\n        );\r\n        \r\n        return newProposalId;\r\n    }\r\n    \r\n    /**\r\n     * @dev Vote on research proposal with quadratic voting\r\n     */\r\n    function vote(\r\n        uint256 proposalId,\r\n        bool support,\r\n        uint256 tokenAmount\r\n    ) external validProposalId(proposalId) onlyVerifiedVoter nonReentrant {\r\n        ResearchProposal storage proposal = proposals[proposalId];\r\n        \r\n        require(block.timestamp <= proposal.votingDeadline, \"Voting period ended\");\r\n        require(proposal.status == ProposalStatus.Active, \"Proposal not active\");\r\n        require(!proposal.hasVoted[msg.sender], \"Already voted\");\r\n        require(tokenAmount > 0, \"Token amount must be greater than 0\");\r\n        require(\r\n            dcnetToken.balanceOf(msg.sender) >= tokenAmount,\r\n            \"Insufficient token balance\"\r\n        );\r\n        \r\n        // Lock tokens for voting (implement token locking mechanism)\r\n        require(\r\n            dcnetToken.transferFrom(msg.sender, address(this), tokenAmount),\r\n            \"Token transfer failed\"\r\n        );\r\n        \r\n        // Calculate quadratic voting weight\r\n        uint256 voteWeight = sqrt(tokenAmount);\r\n        \r\n        if (support) {\r\n            proposal.votesFor += voteWeight;\r\n        } else {\r\n            proposal.votesAgainst += voteWeight;\r\n        }\r\n        \r\n        proposal.hasVoted[msg.sender] = true;\r\n        proposal.voteWeight[msg.sender] = voteWeight;\r\n        \r\n        // Update voter reputation\r\n        voters[msg.sender].reputation += 1;\r\n        \r\n        emit VoteCast(proposalId, msg.sender, support, voteWeight, block.timestamp);\r\n    }\r\n    \r\n    /**\r\n     * @dev Execute proposal after voting period\r\n     */\r\n    function executeProposal(uint256 proposalId) external validProposalId(proposalId) {\r\n        ResearchProposal storage proposal = proposals[proposalId];\r\n        \r\n        require(block.timestamp > proposal.votingDeadline, \"Voting period not ended\");\r\n        require(proposal.status == ProposalStatus.Active, \"Proposal not active\");\r\n        \r\n        uint256 totalVotes = proposal.votesFor + proposal.votesAgainst;\r\n        uint256 totalSupply = dcnetToken.totalSupply();\r\n        uint256 quorum = (totalSupply * quorumPercentage) / 100;\r\n        \r\n        if (totalVotes < quorum) {\r\n            proposal.status = ProposalStatus.Rejected;\r\n        } else {\r\n            uint256 approvalRate = (proposal.votesFor * 100) / totalVotes;\r\n            if (approvalRate >= approvalThreshold) {\r\n                proposal.status = ProposalStatus.Approved;\r\n                // Transfer funds to proposer (implement treasury management)\r\n                if (proposal.fundingRequested <= totalTreasuryFunds) {\r\n                    totalTreasuryFunds -= proposal.fundingRequested;\r\n                    // Implement fund transfer logic\r\n                }\r\n            } else {\r\n                proposal.status = ProposalStatus.Rejected;\r\n            }\r\n        }\r\n        \r\n        emit ProposalExecuted(proposalId, proposal.status, block.timestamp);\r\n    }\r\n    \r\n    /**\r\n     * @dev Deposit funds to DAO treasury\r\n     */\r\n    function depositTreasuryFunds(uint256 amount) external {\r\n        require(amount > 0, \"Amount must be greater than 0\");\r\n        require(\r\n            dcnetToken.transferFrom(msg.sender, address(this), amount),\r\n            \"Token transfer failed\"\r\n        );\r\n        \r\n        totalTreasuryFunds += amount;\r\n        \r\n        emit FundsDeposited(msg.sender, amount, block.timestamp);\r\n    }\r\n    \r\n    /**\r\n     * @dev Verify voter (only owner can verify)\r\n     */\r\n    function verifyVoter(address voter, bool isVerified) external onlyOwner {\r\n        voters[voter].isVerified = isVerified;\r\n        if (isVerified) {\r\n            voters[voter].tokenBalance = dcnetToken.balanceOf(voter);\r\n            voters[voter].votingPower = calculateVotingPower(voter);\r\n        }\r\n    }\r\n    \r\n    /**\r\n     * @dev Calculate voting power based on tokens and reputation\r\n     */\r\n    function calculateVotingPower(address voter) public view returns (uint256) {\r\n        Voter memory voterInfo = voters[voter];\r\n        uint256 tokenPower = voterInfo.tokenBalance;\r\n        uint256 reputationBonus = (tokenPower * voterInfo.reputation) / 100;\r\n        return tokenPower + reputationBonus;\r\n    }\r\n    \r\n    /**\r\n     * @dev Get proposal details\r\n     */\r\n    function getProposal(uint256 proposalId) external view validProposalId(proposalId)\r\n        returns (\r\n            address proposer,\r\n            string memory title,\r\n            string memory description,\r\n            uint256 fundingRequested,\r\n            uint256 votingDeadline,\r\n            uint256 votesFor,\r\n            uint256 votesAgainst,\r\n            ProposalStatus status,\r\n            uint256 createdAt\r\n        ) {\r\n        ResearchProposal storage proposal = proposals[proposalId];\r\n        return (\r\n            proposal.proposer,\r\n            proposal.title,\r\n            proposal.description,\r\n            proposal.fundingRequested,\r\n            proposal.votingDeadline,\r\n            proposal.votesFor,\r\n            proposal.votesAgainst,\r\n            proposal.status,\r\n            proposal.createdAt\r\n        );\r\n    }\r\n    \r\n    /**\r\n     * @dev Square root function for quadratic voting\r\n     */\r\n    function sqrt(uint256 x) internal pure returns (uint256) {\r\n        if (x == 0) return 0;\r\n        uint256 xx = x;\r\n        uint256 r = 1;\r\n        if (xx >= 0x100000000000000000000000000000000) { xx >>= 128; r <<= 64; }\r\n        if (xx >= 0x10000000000000000) { xx >>= 64; r <<= 32; }\r\n        if (xx >= 0x100000000) { xx >>= 32; r <<= 16; }\r\n        if (xx >= 0x10000) { xx >>= 16; r <<= 8; }\r\n        if (xx >= 0x100) { xx >>= 8; r <<= 4; }\r\n        if (xx >= 0x10) { xx >>= 4; r <<= 2; }\r\n        if (xx >= 0x8) { r <<= 1; }\r\n        r = (r + x / r) >> 1;\r\n        r = (r + x / r) >> 1;\r\n        r = (r + x / r) >> 1;\r\n        r = (r + x / r) >> 1;\r\n        r = (r + x / r) >> 1;\r\n        r = (r + x / r) >> 1;\r\n        r = (r + x / r) >> 1;\r\n        uint256 r1 = x / r;\r\n        return r < r1 ? r : r1;\r\n    }\r\n    \r\n    /**\r\n     * @dev Update DAO parameters (only owner)\r\n     */\r\n    function updateDAOParameters(\r\n        uint256 _proposalThreshold,\r\n        uint256 _votingPeriod,\r\n        uint256 _quorumPercentage,\r\n        uint256 _approvalThreshold\r\n    ) external onlyOwner {\r\n        proposalThreshold = _proposalThreshold;\r\n        votingPeriod = _votingPeriod;\r\n        quorumPercentage = _quorumPercentage;\r\n        approvalThreshold = _approvalThreshold;\r\n    }\r\n    \r\n    /**\r\n     * @dev Get DAO statistics\r\n     */\r\n    function getDAOStatistics() external view returns (\r\n        uint256 totalProposals,\r\n        uint256 activeProposals,\r\n        uint256 _totalTreasuryFunds,\r\n        uint256 totalVerifiedVoters\r\n    ) {\r\n        uint256 active = 0;\r\n        uint256 verified = 0;\r\n        \r\n        for (uint256 i = 1; i <= _proposalIdCounter.current(); i++) {\r\n            if (proposals[i].status == ProposalStatus.Active) {\r\n                active++;\r\n            }\r\n        }\r\n        \r\n        // Note: This is inefficient for large numbers of voters\r\n        // In production, maintain separate counters\r\n        \r\n        return (_proposalIdCounter.current(), active, totalTreasuryFunds, verified);\r\n    }\r\n}",
  "sourcePath": "E:\\projects\\DeCliNet\\contracts\\contracts\\ResearchDAO.sol",
  "compiler": {
    "name": "solc",
    "version": "0.8.19+commit.7dd6d404.Emscripten.clang"
  },
  "schemaVersion": "3.4.16",
  "updatedAt": "2025-08-22T12:35:10.169Z",
  "networkType": "ethereum",
  "devdoc": {
    "details": "Decentralized governance for research funding and community decisions",
    "kind": "dev",
    "methods": {
      "calculateVotingPower(address)": {
        "details": "Calculate voting power based on tokens and reputation"
      },
      "depositTreasuryFunds(uint256)": {
        "details": "Deposit funds to DAO treasury"
      },
      "executeProposal(uint256)": {
        "details": "Execute proposal after voting period"
      },
      "getDAOStatistics()": {
        "details": "Get DAO statistics"
      },
      "getProposal(uint256)": {
        "details": "Get proposal details"
      },
      "owner()": {
        "details": "Returns the address of the current owner."
      },
      "renounceOwnership()": {
        "details": "Leaves the contract without owner. It will not be possible to call `onlyOwner` functions. Can only be called by the current owner. NOTE: Renouncing ownership will leave the contract without an owner, thereby disabling any functionality that is only available to the owner."
      },
      "submitProposal(string,string,string,uint256)": {
        "details": "Submit new research proposal"
      },
      "transferOwnership(address)": {
        "details": "Transfers ownership of the contract to a new account (`newOwner`). Can only be called by the current owner."
      },
      "updateDAOParameters(uint256,uint256,uint256,uint256)": {
        "details": "Update DAO parameters (only owner)"
      },
      "verifyVoter(address,bool)": {
        "details": "Verify voter (only owner can verify)"
      },
      "vote(uint256,bool,uint256)": {
        "details": "Vote on research proposal with quadratic voting"
      }
    },
    "title": "ResearchDAO",
    "version": 1
  },
  "userdoc": {
    "kind": "user",
    "methods": {},
    "version": 1
  }
}